{
  "contractName": "myVerifier",
  "abi": [
    {
      "inputs": [
        {
          "components": [
            {
              "components": [
                {
                  "internalType": "uint256",
                  "name": "X",
                  "type": "uint256"
                },
                {
                  "internalType": "uint256",
                  "name": "Y",
                  "type": "uint256"
                }
              ],
              "internalType": "struct Pairing.G1Point",
              "name": "a",
              "type": "tuple"
            },
            {
              "components": [
                {
                  "internalType": "uint256[2]",
                  "name": "X",
                  "type": "uint256[2]"
                },
                {
                  "internalType": "uint256[2]",
                  "name": "Y",
                  "type": "uint256[2]"
                }
              ],
              "internalType": "struct Pairing.G2Point",
              "name": "b",
              "type": "tuple"
            },
            {
              "components": [
                {
                  "internalType": "uint256",
                  "name": "X",
                  "type": "uint256"
                },
                {
                  "internalType": "uint256",
                  "name": "Y",
                  "type": "uint256"
                }
              ],
              "internalType": "struct Pairing.G1Point",
              "name": "c",
              "type": "tuple"
            }
          ],
          "internalType": "struct Verifier.Proof",
          "name": "proof",
          "type": "tuple"
        },
        {
          "internalType": "uint256[2]",
          "name": "input",
          "type": "uint256[2]"
        }
      ],
      "name": "verifyTx",
      "outputs": [
        {
          "internalType": "bool",
          "name": "r",
          "type": "bool"
        }
      ],
      "stateMutability": "view",
      "type": "function"
    }
  ],
  "bytecode": "0x608060405234801561001057600080fd5b50611b3f806100206000396000f3fe608060405234801561001057600080fd5b506004361061002b5760003560e01c806343cd76fc14610030575b600080fd5b61004a600480360381019061004591906117fc565b610060565b6040516100579190611849565b60405180910390f35b600080600267ffffffffffffffff8111156100a4577f4e487b7100000000000000000000000000000000000000000000000000000000600052604160045260246000fd5b6040519080825280602002602001820160405280156100d25781602001602082028036833780820191505090505b50905060005b60028110156101775783816002811061011a577f4e487b7100000000000000000000000000000000000000000000000000000000600052603260045260246000fd5b6020020151828281518110610158577f4e487b7100000000000000000000000000000000000000000000000000000000600052603260045260246000fd5b602002602001018181525050808061016f906119da565b9150506100d8565b50600061018482866101a0565b141561019457600191505061019a565b60009150505b92915050565b6000807f30644e72e131a029b85045b68181585d2833e84879b9709143e1f593f0000001905060006101d06103cf565b9050806080015151600186516101e691906118af565b146101f057600080fd5b60006040518060400160405280600081526020016000815250905060005b865181101561031b5783878281518110610251577f4e487b7100000000000000000000000000000000000000000000000000000000600052603260045260246000fd5b60200260200101511061026357600080fd5b61030682610301856080015160018561027c91906118af565b815181106102b3577f4e487b7100000000000000000000000000000000000000000000000000000000600052603260045260246000fd5b60200260200101518a85815181106102f4577f4e487b7100000000000000000000000000000000000000000000000000000000600052603260045260246000fd5b60200260200101516108e2565b6109fb565b91508080610313906119da565b91505061020e565b5061036b81836080015160008151811061035e577f4e487b7100000000000000000000000000000000000000000000000000000000600052603260045260246000fd5b60200260200101516109fb565b90506103b18560000151866020015161038384610b60565b85604001516103958a60400151610b60565b87606001516103a78960000151610b60565b8960200151610c05565b6103c157600193505050506103c9565b600093505050505b92915050565b6103d7611555565b60405180604001604052807f0d76cb17c3348c6152d30390841346ab18d22aa02fb326a2ca070ba9c3be191181526020017f04c0cab07dee0aed1a9f4f5be6f473ce226423bfa9740398cdcb22d8d44f855a8152508160000181905250604051806040016040528060405180604001604052807f2ddc64ef38b7f161995bfece88f0fe4b615beda802d2332a41ba0cb163589ec581526020017f2040023fbbf005a4e6486cefce8d1f39c8e08cbc72704b696e59e1e660928325815250815260200160405180604001604052807f12fcea62eace606c3b082b496a68a7618d93e2a19f9d4cf47f1f184341ca288c81526020017f081b3021d058318a7725b3d9cf963d0dca7b2700f2b6f16008b6fe217be56c938152508152508160200181905250604051806040016040528060405180604001604052807f16f7a186e7bef410b034ca9ee92ff3c76a9e1ea8c28789a0ae49e67910571bd081526020017f1562aa02bf12dfaa6600a4b6d1946e0e9c00e55b750c74ca2fa96e8411f4c889815250815260200160405180604001604052807f2a36a2779760a856c7d3816db1a2914e33aa7f0cb0556239e14e9ef247444fc181526020017f0a91a4516a612db37d90ef83cbe9adcaca9ca19c9d0c31e0827af7c865c7a7378152508152508160400181905250604051806040016040528060405180604001604052807f091e746e01c7011129eea690d0c60bdea635de253bdef10213a546c543f8017681526020017f276e9af82144373b6a6d0034bf962a304d61470d457de8473c49c1caee9cb2b0815250815260200160405180604001604052807f120eccf240fdfbd004b8775c29f1ceaa4c9188b8ad9eb28c750a8a80063f0f9481526020017ea70580ee6e12aabfaea621f20e77ad5c67b678fbca6f4bb7aad355b11f24748152508152508160600181905250600367ffffffffffffffff8111156106c3577f4e487b7100000000000000000000000000000000000000000000000000000000600052604160045260246000fd5b6040519080825280602002602001820160405280156106fc57816020015b6106e961159c565b8152602001906001900390816106e15790505b50816080018190525060405180604001604052807f0b427ca71fc2121534ccccc17292dfbe096fe05f7183dca0bbe0022347fe5dc381526020017f1e7c143df8ac90dab0986db9e691249c66f1b7ab70dc7e2d80b2d991b49fcca48152508160800151600081518110610798577f4e487b7100000000000000000000000000000000000000000000000000000000600052603260045260246000fd5b602002602001018190525060405180604001604052807f1995e549f680f2bf7a37d9a1a976424375eb16a5d75df6945525b716d62a44b181526020017f1e514eb242b2d08170ee47527f0248ddda176d4ada1e25d3fa9c49a8936c4e3d8152508160800151600181518110610836577f4e487b7100000000000000000000000000000000000000000000000000000000600052603260045260246000fd5b602002602001018190525060405180604001604052807f172770ed528e0d387fd667b3314afa29522f77f73e1809de836d1b7c7235b53d81526020017f16d64447a733b31cbe160eb5e5f2d8eb4ba7ec78869d1c655c4136604f90c55681525081608001516002815181106108d4577f4e487b7100000000000000000000000000000000000000000000000000000000600052603260045260246000fd5b602002602001018190525090565b6108ea61159c565b6108f26115b6565b836000015181600060038110610931577f4e487b7100000000000000000000000000000000000000000000000000000000600052603260045260246000fd5b602002018181525050836020015181600160038110610979577f4e487b7100000000000000000000000000000000000000000000000000000000600052603260045260246000fd5b60200201818152505082816002600381106109bd577f4e487b7100000000000000000000000000000000000000000000000000000000600052603260045260246000fd5b602002018181525050600060608360808460076107d05a03fa905080600081146109e6576109e8565bfe5b50806109f357600080fd5b505092915050565b610a0361159c565b610a0b6115d8565b836000015181600060048110610a4a577f4e487b7100000000000000000000000000000000000000000000000000000000600052603260045260246000fd5b602002018181525050836020015181600160048110610a92577f4e487b7100000000000000000000000000000000000000000000000000000000600052603260045260246000fd5b602002018181525050826000015181600260048110610ada577f4e487b7100000000000000000000000000000000000000000000000000000000600052603260045260246000fd5b602002018181525050826020015181600360048110610b22577f4e487b7100000000000000000000000000000000000000000000000000000000600052603260045260246000fd5b602002018181525050600060608360c08460066107d05a03fa90508060008114610b4b57610b4d565bfe5b5080610b5857600080fd5b505092915050565b610b6861159c565b60007f30644e72e131a029b85045b68181585d97816a916871ca8d3c208c16d87cfd47905060008360000151148015610ba5575060008360200151145b15610bc9576040518060400160405280600081526020016000815250915050610c00565b604051806040016040528084600001518152602001828560200151610bee9190611a23565b83610bf9919061195f565b8152509150505b919050565b600080600467ffffffffffffffff811115610c49577f4e487b7100000000000000000000000000000000000000000000000000000000600052604160045260246000fd5b604051908082528060200260200182016040528015610c8257816020015b610c6f61159c565b815260200190600190039081610c675790505b5090506000600467ffffffffffffffff811115610cc8577f4e487b7100000000000000000000000000000000000000000000000000000000600052604160045260246000fd5b604051908082528060200260200182016040528015610d0157816020015b610cee6115fa565b815260200190600190039081610ce65790505b5090508a82600081518110610d3f577f4e487b7100000000000000000000000000000000000000000000000000000000600052603260045260246000fd5b60200260200101819052508882600181518110610d85577f4e487b7100000000000000000000000000000000000000000000000000000000600052603260045260246000fd5b60200260200101819052508682600281518110610dcb577f4e487b7100000000000000000000000000000000000000000000000000000000600052603260045260246000fd5b60200260200101819052508482600381518110610e11577f4e487b7100000000000000000000000000000000000000000000000000000000600052603260045260246000fd5b60200260200101819052508981600081518110610e57577f4e487b7100000000000000000000000000000000000000000000000000000000600052603260045260246000fd5b60200260200101819052508781600181518110610e9d577f4e487b7100000000000000000000000000000000000000000000000000000000600052603260045260246000fd5b60200260200101819052508581600281518110610ee3577f4e487b7100000000000000000000000000000000000000000000000000000000600052603260045260246000fd5b60200260200101819052508381600381518110610f29577f4e487b7100000000000000000000000000000000000000000000000000000000600052603260045260246000fd5b6020026020010181905250610f3e8282610f4e565b9250505098975050505050505050565b60008151835114610f5e57600080fd5b6000835190506000600682610f739190611905565b905060008167ffffffffffffffff811115610fb7577f4e487b7100000000000000000000000000000000000000000000000000000000600052604160045260246000fd5b604051908082528060200260200182016040528015610fe55781602001602082028036833780820191505090505b50905060005b838110156114ca5786818151811061102c577f4e487b7100000000000000000000000000000000000000000000000000000000600052603260045260246000fd5b6020026020010151600001518260006006846110489190611905565b61105291906118af565b81518110611089577f4e487b7100000000000000000000000000000000000000000000000000000000600052603260045260246000fd5b6020026020010181815250508681815181106110ce577f4e487b7100000000000000000000000000000000000000000000000000000000600052603260045260246000fd5b6020026020010151602001518260016006846110ea9190611905565b6110f491906118af565b8151811061112b577f4e487b7100000000000000000000000000000000000000000000000000000000600052603260045260246000fd5b602002602001018181525050858181518110611170577f4e487b7100000000000000000000000000000000000000000000000000000000600052603260045260246000fd5b6020026020010151600001516001600281106111b5577f4e487b7100000000000000000000000000000000000000000000000000000000600052603260045260246000fd5b60200201518260026006846111ca9190611905565b6111d491906118af565b8151811061120b577f4e487b7100000000000000000000000000000000000000000000000000000000600052603260045260246000fd5b602002602001018181525050858181518110611250577f4e487b7100000000000000000000000000000000000000000000000000000000600052603260045260246000fd5b602002602001015160000151600060028110611295577f4e487b7100000000000000000000000000000000000000000000000000000000600052603260045260246000fd5b60200201518260036006846112aa9190611905565b6112b491906118af565b815181106112eb577f4e487b7100000000000000000000000000000000000000000000000000000000600052603260045260246000fd5b602002602001018181525050858181518110611330577f4e487b7100000000000000000000000000000000000000000000000000000000600052603260045260246000fd5b602002602001015160200151600160028110611375577f4e487b7100000000000000000000000000000000000000000000000000000000600052603260045260246000fd5b602002015182600460068461138a9190611905565b61139491906118af565b815181106113cb577f4e487b7100000000000000000000000000000000000000000000000000000000600052603260045260246000fd5b602002602001018181525050858181518110611410577f4e487b7100000000000000000000000000000000000000000000000000000000600052603260045260246000fd5b602002602001015160200151600060028110611455577f4e487b7100000000000000000000000000000000000000000000000000000000600052603260045260246000fd5b602002015182600560068461146a9190611905565b61147491906118af565b815181106114ab577f4e487b7100000000000000000000000000000000000000000000000000000000600052603260045260246000fd5b60200260200101818152505080806114c2906119da565b915050610feb565b506114d3611620565b6000602082602086026020860160086107d05a03fa905080600081146114f8576114fa565bfe5b508061150557600080fd5b600082600060018110611541577f4e487b7100000000000000000000000000000000000000000000000000000000600052603260045260246000fd5b602002015114159550505050505092915050565b6040518060a0016040528061156861159c565b81526020016115756115fa565b81526020016115826115fa565b815260200161158f6115fa565b8152602001606081525090565b604051806040016040528060008152602001600081525090565b6040518060600160405280600390602082028036833780820191505090505090565b6040518060800160405280600490602082028036833780820191505090505090565b604051806040016040528061160d611642565b815260200161161a611642565b81525090565b6040518060200160405280600190602082028036833780820191505090505090565b6040518060400160405280600290602082028036833780820191505090505090565b600061167761167284611889565b611864565b9050808285602086028201111561168d57600080fd5b60005b858110156116bd57816116a388826117e7565b845260208401935060208301925050600181019050611690565b5050509392505050565b600082601f8301126116d857600080fd5b60026116e5848285611664565b91505092915050565b60006040828403121561170057600080fd5b61170a6040611864565b9050600061171a848285016117e7565b600083015250602061172e848285016117e7565b60208301525092915050565b60006080828403121561174c57600080fd5b6117566040611864565b90506000611766848285016116c7565b600083015250604061177a848285016116c7565b60208301525092915050565b6000610100828403121561179957600080fd5b6117a36060611864565b905060006117b3848285016116ee565b60008301525060406117c78482850161173a565b60208301525060c06117db848285016116ee565b60408301525092915050565b6000813590506117f681611af2565b92915050565b600080610140838503121561181057600080fd5b600061181e85828601611786565b925050610100611830858286016116c7565b9150509250929050565b61184381611993565b82525050565b600060208201905061185e600083018461183a565b92915050565b600061186e61187f565b905061187a82826119a9565b919050565b6000604051905090565b600067ffffffffffffffff8211156118a4576118a3611ab2565b5b602082029050919050565b60006118ba8261199f565b91506118c58361199f565b9250827fffffffffffffffffffffffffffffffffffffffffffffffffffffffffffffffff038211156118fa576118f9611a54565b5b828201905092915050565b60006119108261199f565b915061191b8361199f565b9250817fffffffffffffffffffffffffffffffffffffffffffffffffffffffffffffffff048311821515161561195457611953611a54565b5b828202905092915050565b600061196a8261199f565b91506119758361199f565b92508282101561198857611987611a54565b5b828203905092915050565b60008115159050919050565b6000819050919050565b6119b282611ae1565b810181811067ffffffffffffffff821117156119d1576119d0611ab2565b5b80604052505050565b60006119e58261199f565b91507fffffffffffffffffffffffffffffffffffffffffffffffffffffffffffffffff821415611a1857611a17611a54565b5b600182019050919050565b6000611a2e8261199f565b9150611a398361199f565b925082611a4957611a48611a83565b5b828206905092915050565b7f4e487b7100000000000000000000000000000000000000000000000000000000600052601160045260246000fd5b7f4e487b7100000000000000000000000000000000000000000000000000000000600052601260045260246000fd5b7f4e487b7100000000000000000000000000000000000000000000000000000000600052604160045260246000fd5b6000601f19601f8301169050919050565b611afb8161199f565b8114611b0657600080fd5b5056fea2646970667358221220f50f3d257a5fa8e5b94e01239cf9c8441c734d158ca08962ab902d6218fcff1764736f6c63430008010033",
  "immutableReferences": {},
  "source": "pragma solidity >=0.8.0;\n\n// TODO define a contract call to the zokrates generated solidity contract <Verifier> or <renamedVerifier>\nimport './Verifier.sol';\nimport './ERC721Mintable.sol';\n\ncontract myVerifier is Verifier{}\n// TODO define another contract named SolnSquareVerifier that inherits from your ERC721Mintable class\n\ncontract SolnSquareVerifier is casaToken {\n    struct solutions {\n        uint index;\n        address addr;\n    }\n\n    solutions[] sols;\n\n    mapping (bytes32 => solutions) subbedSols;\n\n    event solutionAdded(solutions s);\n\n    function addSolution(bytes32 _hash, address _addr, uint256 _index ) internal{\n        subbedSols[_hash].index = _index;\n        subbedSols[_hash].addr = _addr;\n        sols.push(subbedSols[_hash]);\n        emit solutionAdded(subbedSols[_hash]);\n    }\n\n    function isSolutionUnique(bytes32 solHash) internal view returns (bool) {\n        return(subbedSols[solHash].addr != address(0));\n    }\n\n    function mint(\n        address to,\n        uint256 tokenId,\n        myVerifier.Proof memory proof\n\n    ) public{\n        bytes32 solHash = keccak256(abi.encode(to,tokenId,proof));\n        require (isSolutionUnique(solHash));\n\n        addSolution(solHash, to, tokenId);\n\n        super.mint(to, tokenId);\n        \n\n    }\n\n}\n\n\n\n\n\n\n\n\n\n\n\n\n\n\n\n\n\n\n\n\n\n\n\n\n\n\n\n\n",
  "sourcePath": "/home/tcdkzrz/Blockchain-Capstone/eth-contracts/contracts/SolnSquareVerifier.sol",
  "compiler": {
    "name": "solc",
    "version": "0.8.1+commit.df193b15.Emscripten.clang"
  },
  "schemaVersion": "3.4.1",
  "updatedAt": "2022-02-10T18:13:44.928Z",
  "devdoc": {
    "kind": "dev",
    "methods": {},
    "version": 1
  },
  "userdoc": {
    "kind": "user",
    "methods": {},
    "version": 1
  }
}