{
  "contractName": "SolnSquareVerifier",
  "abi": [
    {
      "anonymous": false,
      "inputs": [
        {
          "indexed": true,
          "internalType": "address",
          "name": "owner",
          "type": "address"
        },
        {
          "indexed": true,
          "internalType": "address",
          "name": "approved",
          "type": "address"
        },
        {
          "indexed": true,
          "internalType": "uint256",
          "name": "tokenId",
          "type": "uint256"
        }
      ],
      "name": "Approval",
      "type": "event"
    },
    {
      "anonymous": false,
      "inputs": [
        {
          "indexed": true,
          "internalType": "address",
          "name": "owner",
          "type": "address"
        },
        {
          "indexed": true,
          "internalType": "address",
          "name": "operator",
          "type": "address"
        },
        {
          "indexed": false,
          "internalType": "bool",
          "name": "approved",
          "type": "bool"
        }
      ],
      "name": "ApprovalForAll",
      "type": "event"
    },
    {
      "anonymous": false,
      "inputs": [
        {
          "indexed": true,
          "internalType": "address",
          "name": "from",
          "type": "address"
        },
        {
          "indexed": true,
          "internalType": "address",
          "name": "to",
          "type": "address"
        },
        {
          "indexed": true,
          "internalType": "uint256",
          "name": "tokenId",
          "type": "uint256"
        }
      ],
      "name": "Transfer",
      "type": "event"
    },
    {
      "anonymous": false,
      "inputs": [
        {
          "indexed": false,
          "internalType": "address",
          "name": "owner",
          "type": "address"
        }
      ],
      "name": "ownershipTransferred",
      "type": "event"
    },
    {
      "anonymous": false,
      "inputs": [],
      "name": "paused",
      "type": "event"
    },
    {
      "anonymous": false,
      "inputs": [
        {
          "components": [
            {
              "internalType": "uint256",
              "name": "index",
              "type": "uint256"
            },
            {
              "internalType": "address",
              "name": "addr",
              "type": "address"
            }
          ],
          "indexed": false,
          "internalType": "struct SolnSquareVerifier.solutions",
          "name": "s",
          "type": "tuple"
        }
      ],
      "name": "solutionAdded",
      "type": "event"
    },
    {
      "anonymous": false,
      "inputs": [],
      "name": "unPaused",
      "type": "event"
    },
    {
      "inputs": [
        {
          "internalType": "bytes32",
          "name": "_myid",
          "type": "bytes32"
        },
        {
          "internalType": "string",
          "name": "_result",
          "type": "string"
        }
      ],
      "name": "__callback",
      "outputs": [],
      "stateMutability": "nonpayable",
      "type": "function"
    },
    {
      "inputs": [
        {
          "internalType": "bytes32",
          "name": "_myid",
          "type": "bytes32"
        },
        {
          "internalType": "string",
          "name": "_result",
          "type": "string"
        },
        {
          "internalType": "bytes",
          "name": "_proof",
          "type": "bytes"
        }
      ],
      "name": "__callback",
      "outputs": [],
      "stateMutability": "nonpayable",
      "type": "function"
    },
    {
      "inputs": [
        {
          "internalType": "address",
          "name": "to",
          "type": "address"
        },
        {
          "internalType": "uint256",
          "name": "tokenId",
          "type": "uint256"
        }
      ],
      "name": "approve",
      "outputs": [],
      "stateMutability": "nonpayable",
      "type": "function"
    },
    {
      "inputs": [
        {
          "internalType": "address",
          "name": "owner",
          "type": "address"
        }
      ],
      "name": "balanceOf",
      "outputs": [
        {
          "internalType": "uint256",
          "name": "",
          "type": "uint256"
        }
      ],
      "stateMutability": "view",
      "type": "function",
      "constant": true
    },
    {
      "inputs": [],
      "name": "baseTokenURI",
      "outputs": [
        {
          "internalType": "string",
          "name": "",
          "type": "string"
        }
      ],
      "stateMutability": "view",
      "type": "function",
      "constant": true
    },
    {
      "inputs": [
        {
          "internalType": "uint256",
          "name": "tokenId",
          "type": "uint256"
        }
      ],
      "name": "getApproved",
      "outputs": [
        {
          "internalType": "address",
          "name": "",
          "type": "address"
        }
      ],
      "stateMutability": "view",
      "type": "function",
      "constant": true
    },
    {
      "inputs": [],
      "name": "getOwner",
      "outputs": [
        {
          "internalType": "address",
          "name": "",
          "type": "address"
        }
      ],
      "stateMutability": "nonpayable",
      "type": "function"
    },
    {
      "inputs": [
        {
          "internalType": "address",
          "name": "owner",
          "type": "address"
        },
        {
          "internalType": "address",
          "name": "operator",
          "type": "address"
        }
      ],
      "name": "isApprovedForAll",
      "outputs": [
        {
          "internalType": "bool",
          "name": "",
          "type": "bool"
        }
      ],
      "stateMutability": "view",
      "type": "function",
      "constant": true
    },
    {
      "inputs": [],
      "name": "name",
      "outputs": [
        {
          "internalType": "string",
          "name": "",
          "type": "string"
        }
      ],
      "stateMutability": "view",
      "type": "function",
      "constant": true
    },
    {
      "inputs": [
        {
          "internalType": "uint256",
          "name": "tokenId",
          "type": "uint256"
        }
      ],
      "name": "ownerOf",
      "outputs": [
        {
          "internalType": "address",
          "name": "",
          "type": "address"
        }
      ],
      "stateMutability": "view",
      "type": "function",
      "constant": true
    },
    {
      "inputs": [
        {
          "internalType": "address",
          "name": "from",
          "type": "address"
        },
        {
          "internalType": "address",
          "name": "to",
          "type": "address"
        },
        {
          "internalType": "uint256",
          "name": "tokenId",
          "type": "uint256"
        }
      ],
      "name": "safeTransferFrom",
      "outputs": [],
      "stateMutability": "nonpayable",
      "type": "function"
    },
    {
      "inputs": [
        {
          "internalType": "address",
          "name": "from",
          "type": "address"
        },
        {
          "internalType": "address",
          "name": "to",
          "type": "address"
        },
        {
          "internalType": "uint256",
          "name": "tokenId",
          "type": "uint256"
        },
        {
          "internalType": "bytes",
          "name": "_data",
          "type": "bytes"
        }
      ],
      "name": "safeTransferFrom",
      "outputs": [],
      "stateMutability": "nonpayable",
      "type": "function"
    },
    {
      "inputs": [
        {
          "internalType": "address",
          "name": "to",
          "type": "address"
        },
        {
          "internalType": "bool",
          "name": "approved",
          "type": "bool"
        }
      ],
      "name": "setApprovalForAll",
      "outputs": [],
      "stateMutability": "nonpayable",
      "type": "function"
    },
    {
      "inputs": [
        {
          "internalType": "bool",
          "name": "mode",
          "type": "bool"
        }
      ],
      "name": "setPause",
      "outputs": [],
      "stateMutability": "nonpayable",
      "type": "function"
    },
    {
      "inputs": [
        {
          "internalType": "bytes4",
          "name": "interfaceId",
          "type": "bytes4"
        }
      ],
      "name": "supportsInterface",
      "outputs": [
        {
          "internalType": "bool",
          "name": "",
          "type": "bool"
        }
      ],
      "stateMutability": "view",
      "type": "function",
      "constant": true
    },
    {
      "inputs": [],
      "name": "symbol",
      "outputs": [
        {
          "internalType": "string",
          "name": "",
          "type": "string"
        }
      ],
      "stateMutability": "view",
      "type": "function",
      "constant": true
    },
    {
      "inputs": [
        {
          "internalType": "uint256",
          "name": "index",
          "type": "uint256"
        }
      ],
      "name": "tokenByIndex",
      "outputs": [
        {
          "internalType": "uint256",
          "name": "",
          "type": "uint256"
        }
      ],
      "stateMutability": "view",
      "type": "function",
      "constant": true
    },
    {
      "inputs": [
        {
          "internalType": "address",
          "name": "owner",
          "type": "address"
        },
        {
          "internalType": "uint256",
          "name": "index",
          "type": "uint256"
        }
      ],
      "name": "tokenOfOwnerByIndex",
      "outputs": [
        {
          "internalType": "uint256",
          "name": "",
          "type": "uint256"
        }
      ],
      "stateMutability": "view",
      "type": "function",
      "constant": true
    },
    {
      "inputs": [
        {
          "internalType": "uint256",
          "name": "tokenId",
          "type": "uint256"
        }
      ],
      "name": "tokenURI",
      "outputs": [
        {
          "internalType": "string",
          "name": "",
          "type": "string"
        }
      ],
      "stateMutability": "view",
      "type": "function",
      "constant": true
    },
    {
      "inputs": [],
      "name": "totalSupply",
      "outputs": [
        {
          "internalType": "uint256",
          "name": "",
          "type": "uint256"
        }
      ],
      "stateMutability": "view",
      "type": "function",
      "constant": true
    },
    {
      "inputs": [
        {
          "internalType": "address",
          "name": "from",
          "type": "address"
        },
        {
          "internalType": "address",
          "name": "to",
          "type": "address"
        },
        {
          "internalType": "uint256",
          "name": "tokenId",
          "type": "uint256"
        }
      ],
      "name": "transferFrom",
      "outputs": [],
      "stateMutability": "nonpayable",
      "type": "function"
    },
    {
      "inputs": [
        {
          "internalType": "address",
          "name": "newOwner",
          "type": "address"
        }
      ],
      "name": "transferOwnership",
      "outputs": [],
      "stateMutability": "nonpayable",
      "type": "function"
    },
    {
      "inputs": [
        {
          "internalType": "address",
          "name": "to",
          "type": "address"
        },
        {
          "internalType": "uint256",
          "name": "tokenId",
          "type": "uint256"
        }
      ],
      "name": "mint",
      "outputs": [
        {
          "internalType": "bool",
          "name": "",
          "type": "bool"
        }
      ],
      "stateMutability": "nonpayable",
      "type": "function"
    },
    {
      "inputs": [
        {
          "internalType": "address",
          "name": "to",
          "type": "address"
        },
        {
          "internalType": "uint256",
          "name": "tokenId",
          "type": "uint256"
        },
        {
          "components": [
            {
              "components": [
                {
                  "internalType": "uint256",
                  "name": "X",
                  "type": "uint256"
                },
                {
                  "internalType": "uint256",
                  "name": "Y",
                  "type": "uint256"
                }
              ],
              "internalType": "struct Pairing.G1Point",
              "name": "a",
              "type": "tuple"
            },
            {
              "components": [
                {
                  "internalType": "uint256[2]",
                  "name": "X",
                  "type": "uint256[2]"
                },
                {
                  "internalType": "uint256[2]",
                  "name": "Y",
                  "type": "uint256[2]"
                }
              ],
              "internalType": "struct Pairing.G2Point",
              "name": "b",
              "type": "tuple"
            },
            {
              "components": [
                {
                  "internalType": "uint256",
                  "name": "X",
                  "type": "uint256"
                },
                {
                  "internalType": "uint256",
                  "name": "Y",
                  "type": "uint256"
                }
              ],
              "internalType": "struct Pairing.G1Point",
              "name": "c",
              "type": "tuple"
            }
          ],
          "internalType": "struct Verifier.Proof",
          "name": "proof",
          "type": "tuple"
        }
      ],
      "name": "mint",
      "outputs": [],
      "stateMutability": "nonpayable",
      "type": "function"
    }
  ],
  "bytecode": "0x60806040523480156200001157600080fd5b506040518060400160405280600981526020017f63617361546f6b656e00000000000000000000000000000000000000000000008152506040518060400160405280600381526020017f43535400000000000000000000000000000000000000000000000000000000008152506040518060600160405280603f8152602001620033a1603f9139336000806101000a81548173ffffffffffffffffffffffffffffffffffffffff021916908373ffffffffffffffffffffffffffffffffffffffff1602179055507fac9a252a3ed2d3fcc198677953ffe98ac492e191a4605978c655f8ce4ae80676336040516200010991906200036c565b60405180910390a160008060146101000a81548160ff0219169083151502179055507f061a46a930b541bca81319fec40322a6b46378b59a6e2976a8d93a5d2e4bf2d360405160405180910390a16200016f6301ffc9a760e01b6200020b60201b60201c565b620001876380ac58cd60e01b6200020b60201b60201c565b6200019f63780e9d6360e01b6200020b60201b60201c565b82600f9080519060200190620001b7929190620002ab565b508160109080519060200190620001d0929190620002ab565b508060119080519060200190620001e9929190620002ab565b5062000202635b5e139f60e01b6200020b60201b60201c565b50505062000422565b63ffffffff60e01b817bffffffffffffffffffffffffffffffffffffffffffffffffffffffff191614156200023f57600080fd5b6001806000837bffffffffffffffffffffffffffffffffffffffffffffffffffffffff19167bffffffffffffffffffffffffffffffffffffffffffffffffffffffff1916815260200190815260200160002060006101000a81548160ff02191690831515021790555050565b828054620002b990620003bd565b90600052602060002090601f016020900481019282620002dd576000855562000329565b82601f10620002f857805160ff191683800117855562000329565b8280016001018555821562000329579182015b82811115620003285782518255916020019190600101906200030b565b5b5090506200033891906200033c565b5090565b5b80821115620003575760008160009055506001016200033d565b5090565b620003668162000389565b82525050565b60006020820190506200038360008301846200035b565b92915050565b600062000396826200039d565b9050919050565b600073ffffffffffffffffffffffffffffffffffffffff82169050919050565b60006002820490506001821680620003d657607f821691505b60208210811415620003ed57620003ec620003f3565b5b50919050565b7f4e487b7100000000000000000000000000000000000000000000000000000000600052602260045260246000fd5b612f6f80620004326000396000f3fe608060405234801561001057600080fd5b50600436106101585760003560e01c80635b750b79116100c3578063b88d4fde1161007c578063b88d4fde146103e9578063bedb86fb14610405578063c87b56dd14610421578063d547cfb714610451578063e985e9c51461046f578063f2fde38b1461049f57610158565b80635b750b79146103155780636352211e1461033157806370a0823114610361578063893d20e81461039157806395d89b41146103af578063a22cb465146103cd57610158565b806327dc297e1161011557806327dc297e146102315780632f745c591461024d57806338bbfa501461027d57806340c10f191461029957806342842e0e146102c95780634f6ccce7146102e557610158565b806301ffc9a71461015d57806306fdde031461018d578063081812fc146101ab578063095ea7b3146101db57806318160ddd146101f757806323b872dd14610215575b600080fd5b61017760048036038101906101729190612659565b6104bb565b6040516101849190612987565b60405180910390f35b610195610523565b6040516101a291906129a2565b60405180910390f35b6101c560048036038101906101c091906126ab565b6105b5565b6040516101d291906128e8565b60405180910390f35b6101f560048036038101906101f091906124d1565b6105f2565b005b6101ff61074b565b60405161020c91906129df565b60405180910390f35b61022f600480360381019061022a91906123cb565b610758565b005b61024b60048036038101906102469190612586565b61077b565b005b610267600480360381019061026291906124d1565b6107fd565b60405161027491906129df565b60405180910390f35b610297600480360381019061029291906125da565b61089d565b005b6102b360048036038101906102ae91906124d1565b6108c0565b6040516102c09190612987565b60405180910390f35b6102e360048036038101906102de91906123cb565b610938565b005b6102ff60048036038101906102fa91906126ab565b610958565b60405161030c91906129df565b60405180910390f35b61032f600480360381019061032a919061250d565b6109b9565b005b61034b600480360381019061034691906126ab565b610a16565b60405161035891906128e8565b60405180910390f35b61037b60048036038101906103769190612366565b610a1d565b60405161038891906129df565b60405180910390f35b610399610a24565b6040516103a691906128e8565b60405180910390f35b6103b7610a4d565b6040516103c491906129a2565b60405180910390f35b6103e760048036038101906103e29190612495565b610adf565b005b61040360048036038101906103fe919061241a565b610c15565b005b61041f600480360381019061041a919061255d565b610c3b565b005b61043b600480360381019061043691906126ab565b610d1b565b60405161044891906129a2565b60405180910390f35b610459610dd2565b60405161046691906129a2565b60405180910390f35b6104896004803603810190610484919061238f565b610e64565b6040516104969190612987565b60405180910390f35b6104b960048036038101906104b49190612366565b610ef8565b005b600060016000837bffffffffffffffffffffffffffffffffffffffffffffffffffffffff19167bffffffffffffffffffffffffffffffffffffffffffffffffffffffff1916815260200190815260200160002060009054906101000a900460ff169050919050565b6060600f805461053290612cdb565b80601f016020809104026020016040519081016040528092919081815260200182805461055e90612cdb565b80156105ab5780601f10610580576101008083540402835291602001916105ab565b820191906000526020600020905b81548152906001019060200180831161058e57829003601f168201915b5050505050905090565b60006003600083815260200190815260200160002060009054906101000a900473ffffffffffffffffffffffffffffffffffffffff169050919050565b6105fb81610a16565b73ffffffffffffffffffffffffffffffffffffffff168273ffffffffffffffffffffffffffffffffffffffff16141561063357600080fd5b3373ffffffffffffffffffffffffffffffffffffffff16610652610a24565b73ffffffffffffffffffffffffffffffffffffffff161480610689575061068861067b82610a16565b610683610a24565b610e64565b5b61069257600080fd5b816003600083815260200190815260200160002060006101000a81548173ffffffffffffffffffffffffffffffffffffffff021916908373ffffffffffffffffffffffffffffffffffffffff160217905550808273ffffffffffffffffffffffffffffffffffffffff1661070583610a16565b73ffffffffffffffffffffffffffffffffffffffff167f8c5be1e5ebec7d5bd14f71427d1e84f3dd0314c0f7b2291e5b200ac8c7c3b92560405160405180910390a45050565b6000600880549050905090565b6107623382610f93565b61076b57600080fd5b610776838383611028565b505050565b6107f98282600067ffffffffffffffff8111156107c1577f4e487b7100000000000000000000000000000000000000000000000000000000600052604160045260246000fd5b6040519080825280601f01601f1916602001820160405280156107f35781602001600182028036833780820191505090505b5061089d565b5050565b600061080883610a1d565b821061081357600080fd5b600660008473ffffffffffffffffffffffffffffffffffffffff1673ffffffffffffffffffffffffffffffffffffffff168152602001908152602001600020828154811061088a577f4e487b7100000000000000000000000000000000000000000000000000000000600052603260045260246000fd5b9060005260206000200154905092915050565b6000801b600d60008060001b815260200190815260200160002081905550505050565b60008060009054906101000a900473ffffffffffffffffffffffffffffffffffffffff1673ffffffffffffffffffffffffffffffffffffffff163373ffffffffffffffffffffffffffffffffffffffff161461091b57600080fd5b610925838361104c565b61092e8261106d565b6001905092915050565b61095383838360405180602001604052806000815250610c15565b505050565b600061096261074b565b821061096d57600080fd5b600882815481106109a7577f4e487b7100000000000000000000000000000000000000000000000000000000600052603260045260246000fd5b90600052602060002001549050919050565b60008383836040516020016109d09392919061294f565b6040516020818303038152906040528051906020012090506109f18161114b565b6109fa57600080fd5b610a058185856111ba565b610a0f84846108c0565b5050505050565b6000919050565b6000919050565b60008060009054906101000a900473ffffffffffffffffffffffffffffffffffffffff16905090565b606060108054610a5c90612cdb565b80601f0160208091040260200160405190810160405280929190818152602001828054610a8890612cdb565b8015610ad55780601f10610aaa57610100808354040283529160200191610ad5565b820191906000526020600020905b815481529060010190602001808311610ab857829003601f168201915b5050505050905090565b3373ffffffffffffffffffffffffffffffffffffffff168273ffffffffffffffffffffffffffffffffffffffff161415610b1857600080fd5b80600560003373ffffffffffffffffffffffffffffffffffffffff1673ffffffffffffffffffffffffffffffffffffffff16815260200190815260200160002060008473ffffffffffffffffffffffffffffffffffffffff1673ffffffffffffffffffffffffffffffffffffffff16815260200190815260200160002060006101000a81548160ff0219169083151502179055508173ffffffffffffffffffffffffffffffffffffffff163373ffffffffffffffffffffffffffffffffffffffff167f17307eab39ab6107e8899845ad3d59bd9653f200f220920489ca2b5937696c3183604051610c099190612987565b60405180910390a35050565b610c20848484610758565b610c2c84848484611329565b610c3557600080fd5b50505050565b60008054906101000a900473ffffffffffffffffffffffffffffffffffffffff1673ffffffffffffffffffffffffffffffffffffffff163373ffffffffffffffffffffffffffffffffffffffff1614610c9357600080fd5b80600060146101000a81548160ff021916908315150217905550600115158115151415610ceb577f5c975abbf8c4d6efa68fc896e233763eb503f2318260b7bf59b19412913788b260405160405180910390a1610d18565b7f061a46a930b541bca81319fec40322a6b46378b59a6e2976a8d93a5d2e4bf2d360405160405180910390a15b50565b6060610d2682611440565b610d2f57600080fd5b601260008381526020019081526020016000208054610d4d90612cdb565b80601f0160208091040260200160405190810160405280929190818152602001828054610d7990612cdb565b8015610dc65780601f10610d9b57610100808354040283529160200191610dc6565b820191906000526020600020905b815481529060010190602001808311610da957829003601f168201915b50505050509050919050565b606060118054610de190612cdb565b80601f0160208091040260200160405190810160405280929190818152602001828054610e0d90612cdb565b8015610e5a5780601f10610e2f57610100808354040283529160200191610e5a565b820191906000526020600020905b815481529060010190602001808311610e3d57829003601f168201915b5050505050905090565b6000600560008473ffffffffffffffffffffffffffffffffffffffff1673ffffffffffffffffffffffffffffffffffffffff16815260200190815260200160002060008373ffffffffffffffffffffffffffffffffffffffff1673ffffffffffffffffffffffffffffffffffffffff16815260200190815260200160002060009054906101000a900460ff16905092915050565b60008054906101000a900473ffffffffffffffffffffffffffffffffffffffff1673ffffffffffffffffffffffffffffffffffffffff163373ffffffffffffffffffffffffffffffffffffffff1614610f5057600080fd5b806000806101000a81548173ffffffffffffffffffffffffffffffffffffffff021916908373ffffffffffffffffffffffffffffffffffffffff16021790555050565b600080610f9f83610a16565b90508073ffffffffffffffffffffffffffffffffffffffff168473ffffffffffffffffffffffffffffffffffffffff16148061100e57508373ffffffffffffffffffffffffffffffffffffffff16610ff6846105b5565b73ffffffffffffffffffffffffffffffffffffffff16145b8061101f575061101e8185610e64565b5b91505092915050565b6110338383836114b2565b61103d83826114b7565b61104782826116e0565b505050565b61105682826117a4565b61106082826116e0565b61106981611853565b5050565b61107681611440565b61107f57600080fd5b600061111d6011805461109190612cdb565b80601f01602080910402602001604051908101604052809291908181526020018280546110bd90612cdb565b801561110a5780601f106110df5761010080835404028352916020019161110a565b820191906000526020600020905b8154815290600101906020018083116110ed57829003601f168201915b50505050506111188461189c565b611a58565b905080601260008481526020019081526020016000209080519060200190611146929190611ff2565b505050565b60008073ffffffffffffffffffffffffffffffffffffffff166014600084815260200190815260200160002060010160009054906101000a900473ffffffffffffffffffffffffffffffffffffffff1673ffffffffffffffffffffffffffffffffffffffff1614159050919050565b806014600085815260200190815260200160002060000181905550816014600085815260200190815260200160002060010160006101000a81548173ffffffffffffffffffffffffffffffffffffffff021916908373ffffffffffffffffffffffffffffffffffffffff1602179055506013601460008581526020019081526020016000209080600181540180825580915050600190039060005260206000209060020201600090919091909150600082015481600001556001820160009054906101000a900473ffffffffffffffffffffffffffffffffffffffff168160010160006101000a81548173ffffffffffffffffffffffffffffffffffffffff021916908373ffffffffffffffffffffffffffffffffffffffff16021790555050507f9272592759e835de7a1600313f5976da2b2c628d0235ac3e72ee3fe781f7f13e6014600085815260200190815260200160002060405161131c91906129c4565b60405180910390a1505050565b600061134a8473ffffffffffffffffffffffffffffffffffffffff16611a9c565b6113575760019050611438565b60008473ffffffffffffffffffffffffffffffffffffffff1663150b7a02338887876040518563ffffffff1660e01b81526004016113989493929190612903565b602060405180830381600087803b1580156113b257600080fd5b505af11580156113c6573d6000803e3d6000fd5b505050506040513d601f19601f820116820180604052508101906113ea9190612682565b905063150b7a0260e01b7bffffffffffffffffffffffffffffffffffffffffffffffffffffffff1916817bffffffffffffffffffffffffffffffffffffffffffffffffffffffff1916149150505b949350505050565b6000806002600084815260200190815260200160002060009054906101000a900473ffffffffffffffffffffffffffffffffffffffff169050600073ffffffffffffffffffffffffffffffffffffffff168173ffffffffffffffffffffffffffffffffffffffff161415915050919050565b505050565b60006001600660008573ffffffffffffffffffffffffffffffffffffffff1673ffffffffffffffffffffffffffffffffffffffff168152602001908152602001600020805490506115089190612b93565b905060006007600084815260200190815260200160002054905081811461164f576000600660008673ffffffffffffffffffffffffffffffffffffffff1673ffffffffffffffffffffffffffffffffffffffff16815260200190815260200160002083815481106115a2577f4e487b7100000000000000000000000000000000000000000000000000000000600052603260045260246000fd5b9060005260206000200154905080600660008773ffffffffffffffffffffffffffffffffffffffff1673ffffffffffffffffffffffffffffffffffffffff1681526020019081526020016000208381548110611627577f4e487b7100000000000000000000000000000000000000000000000000000000600052603260045260246000fd5b9060005260206000200181905550816007600083815260200190815260200160002081905550505b600660008573ffffffffffffffffffffffffffffffffffffffff1673ffffffffffffffffffffffffffffffffffffffff1681526020019081526020016000208054806116c4577f4e487b7100000000000000000000000000000000000000000000000000000000600052603160045260246000fd5b6001900381819060005260206000200160009055905550505050565b600660008373ffffffffffffffffffffffffffffffffffffffff1673ffffffffffffffffffffffffffffffffffffffff168152602001908152602001600020805490506007600083815260200190815260200160002081905550600660008373ffffffffffffffffffffffffffffffffffffffff1673ffffffffffffffffffffffffffffffffffffffff1681526020019081526020016000208190806001815401808255809150506001900390600052602060002001600090919091909150555050565b6117ad81611440565b6117b657600080fd5b816002600083815260200190815260200160002060006101000a81548173ffffffffffffffffffffffffffffffffffffffff021916908373ffffffffffffffffffffffffffffffffffffffff16021790555061184f600460008473ffffffffffffffffffffffffffffffffffffffff1673ffffffffffffffffffffffffffffffffffffffff168152602001908152602001600020611abf565b5050565b6008805490506009600083815260200190815260200160002081905550600881908060018154018082558091505060019003906000526020600020016000909190919091505550565b606060008214156118e4576040518060400160405280600181526020017f30000000000000000000000000000000000000000000000000000000000000008152509050611a53565b600082905060005b600082146119165780806118ff90612d72565b915050600a8261190f9190612b62565b91506118ec565b60008167ffffffffffffffff811115611958577f4e487b7100000000000000000000000000000000000000000000000000000000600052604160045260246000fd5b6040519080825280601f01601f19166020018201604052801561198a5781602001600182028036833780820191505090505b509050600060018361199c9190612b93565b90505b60008614611a4b57600a866119b49190612dbb565b60306119c09190612b0c565b60f81b8282806119cf90612cb1565b935081518110611a08577f4e487b7100000000000000000000000000000000000000000000000000000000600052603260045260246000fd5b60200101907effffffffffffffffffffffffffffffffffffffffffffffffffffffffffffff1916908160001a905350600a86611a449190612b62565b955061199f565b819450505050505b919050565b6060611a948383604051806020016040528060008152506040518060200160405280600081525060405180602001604052806000815250611ad5565b905092915050565b6000808273ffffffffffffffffffffffffffffffffffffffff163b119050919050565b6001816000016000828254019250508190555050565b606060008690506000869050600086905060008690506000869050600081518351855187518951611b069190612b0c565b611b109190612b0c565b611b1a9190612b0c565b611b249190612b0c565b67ffffffffffffffff811115611b63577f4e487b7100000000000000000000000000000000000000000000000000000000600052604160045260246000fd5b6040519080825280601f01601f191660200182016040528015611b955781602001600182028036833780820191505090505b5090506000819050600080600090505b8851811015611c7957888181518110611be7577f4e487b7100000000000000000000000000000000000000000000000000000000600052603260045260246000fd5b602001015160f81c60f81b838380611bfe90612d72565b945081518110611c37577f4e487b7100000000000000000000000000000000000000000000000000000000600052603260045260246000fd5b60200101907effffffffffffffffffffffffffffffffffffffffffffffffffffffffffffff1916908160001a9053508080611c7190612d72565b915050611ba5565b600090505b8751811015611d5257878181518110611cc0577f4e487b7100000000000000000000000000000000000000000000000000000000600052603260045260246000fd5b602001015160f81c60f81b838380611cd790612d72565b945081518110611d10577f4e487b7100000000000000000000000000000000000000000000000000000000600052603260045260246000fd5b60200101907effffffffffffffffffffffffffffffffffffffffffffffffffffffffffffff1916908160001a9053508080611d4a90612d72565b915050611c7e565b600090505b8651811015611e2b57868181518110611d99577f4e487b7100000000000000000000000000000000000000000000000000000000600052603260045260246000fd5b602001015160f81c60f81b838380611db090612d72565b945081518110611de9577f4e487b7100000000000000000000000000000000000000000000000000000000600052603260045260246000fd5b60200101907effffffffffffffffffffffffffffffffffffffffffffffffffffffffffffff1916908160001a9053508080611e2390612d72565b915050611d57565b600090505b8551811015611f0457858181518110611e72577f4e487b7100000000000000000000000000000000000000000000000000000000600052603260045260246000fd5b602001015160f81c60f81b838380611e8990612d72565b945081518110611ec2577f4e487b7100000000000000000000000000000000000000000000000000000000600052603260045260246000fd5b60200101907effffffffffffffffffffffffffffffffffffffffffffffffffffffffffffff1916908160001a9053508080611efc90612d72565b915050611e30565b600090505b8451811015611fdd57848181518110611f4b577f4e487b7100000000000000000000000000000000000000000000000000000000600052603260045260246000fd5b602001015160f81c60f81b838380611f6290612d72565b945081518110611f9b577f4e487b7100000000000000000000000000000000000000000000000000000000600052603260045260246000fd5b60200101907effffffffffffffffffffffffffffffffffffffffffffffffffffffffffffff1916908160001a9053508080611fd590612d72565b915050611f09565b82995050505050505050505095945050505050565b828054611ffe90612cdb565b90600052602060002090601f0160209004810192826120205760008555612067565b82601f1061203957805160ff1916838001178555612067565b82800160010185558215612067579182015b8281111561206657825182559160200191906001019061204b565b5b5090506120749190612078565b5090565b5b80821115612091576000816000905550600101612079565b5090565b60006120a86120a384612a1f565b6129fa565b905080828560208602820111156120be57600080fd5b60005b858110156120ee57816120d48882612351565b8452602084019350602083019250506001810190506120c1565b5050509392505050565b600061210b61210684612a45565b6129fa565b90508281526020810184848401111561212357600080fd5b61212e848285612c6f565b509392505050565b600061214961214484612a76565b6129fa565b90508281526020810184848401111561216157600080fd5b61216c848285612c6f565b509392505050565b60008135905061218381612ec6565b92915050565b600082601f83011261219a57600080fd5b60026121a7848285612095565b91505092915050565b6000813590506121bf81612edd565b92915050565b6000813590506121d481612ef4565b92915050565b6000813590506121e981612f0b565b92915050565b6000815190506121fe81612f0b565b92915050565b600082601f83011261221557600080fd5b81356122258482602086016120f8565b91505092915050565b600082601f83011261223f57600080fd5b813561224f848260208601612136565b91505092915050565b60006040828403121561226a57600080fd5b61227460406129fa565b9050600061228484828501612351565b600083015250602061229884828501612351565b60208301525092915050565b6000608082840312156122b657600080fd5b6122c060406129fa565b905060006122d084828501612189565b60008301525060406122e484828501612189565b60208301525092915050565b6000610100828403121561230357600080fd5b61230d60606129fa565b9050600061231d84828501612258565b6000830152506040612331848285016122a4565b60208301525060c061234584828501612258565b60408301525092915050565b60008135905061236081612f22565b92915050565b60006020828403121561237857600080fd5b600061238684828501612174565b91505092915050565b600080604083850312156123a257600080fd5b60006123b085828601612174565b92505060206123c185828601612174565b9150509250929050565b6000806000606084860312156123e057600080fd5b60006123ee86828701612174565b93505060206123ff86828701612174565b925050604061241086828701612351565b9150509250925092565b6000806000806080858703121561243057600080fd5b600061243e87828801612174565b945050602061244f87828801612174565b935050604061246087828801612351565b925050606085013567ffffffffffffffff81111561247d57600080fd5b61248987828801612204565b91505092959194509250565b600080604083850312156124a857600080fd5b60006124b685828601612174565b92505060206124c7858286016121b0565b9150509250929050565b600080604083850312156124e457600080fd5b60006124f285828601612174565b925050602061250385828601612351565b9150509250929050565b6000806000610140848603121561252357600080fd5b600061253186828701612174565b935050602061254286828701612351565b9250506040612553868287016122f0565b9150509250925092565b60006020828403121561256f57600080fd5b600061257d848285016121b0565b91505092915050565b6000806040838503121561259957600080fd5b60006125a7858286016121c5565b925050602083013567ffffffffffffffff8111156125c457600080fd5b6125d08582860161222e565b9150509250929050565b6000806000606084860312156125ef57600080fd5b60006125fd868287016121c5565b935050602084013567ffffffffffffffff81111561261a57600080fd5b6126268682870161222e565b925050604084013567ffffffffffffffff81111561264357600080fd5b61264f86828701612204565b9150509250925092565b60006020828403121561266b57600080fd5b6000612679848285016121da565b91505092915050565b60006020828403121561269457600080fd5b60006126a2848285016121ef565b91505092915050565b6000602082840312156126bd57600080fd5b60006126cb84828501612351565b91505092915050565b60006126e083836128ca565b60208301905092915050565b6126f581612bf1565b82525050565b61270481612bf1565b82525050565b61271381612ab1565b61271d8184612adf565b925061272882612aa7565b8060005b8381101561275957815161274087826126d4565b965061274b83612ad2565b92505060018101905061272c565b505050505050565b61276a81612c03565b82525050565b600061277b82612abc565b6127858185612aea565b9350612795818560208601612c7e565b61279e81612ea8565b840191505092915050565b60006127b482612ac7565b6127be8185612afb565b93506127ce818560208601612c7e565b6127d781612ea8565b840191505092915050565b6040820160008201516127f860008501826128ca565b50602082015161280b60208501826128ca565b50505050565b608082016000820151612827600085018261270a565b50602082015161283a604085018261270a565b50505050565b6101008201600082015161285760008501826127e2565b50602082015161286a6040850182612811565b50604082015161287d60c08501826127e2565b50505050565b60408201600080830154905061289881612d27565b6128a560008601826128ca565b50600183015490506128b681612d0d565b6128c360208601826126ec565b5050505050565b6128d381612c65565b82525050565b6128e281612c65565b82525050565b60006020820190506128fd60008301846126fb565b92915050565b600060808201905061291860008301876126fb565b61292560208301866126fb565b61293260408301856128d9565b81810360608301526129448184612770565b905095945050505050565b60006101408201905061296560008301866126fb565b61297260208301856128d9565b61297f6040830184612840565b949350505050565b600060208201905061299c6000830184612761565b92915050565b600060208201905081810360008301526129bc81846127a9565b905092915050565b60006040820190506129d96000830184612883565b92915050565b60006020820190506129f460008301846128d9565b92915050565b6000612a04612a15565b9050612a108282612d41565b919050565b6000604051905090565b600067ffffffffffffffff821115612a3a57612a39612e79565b5b602082029050919050565b600067ffffffffffffffff821115612a6057612a5f612e79565b5b612a6982612ea8565b9050602081019050919050565b600067ffffffffffffffff821115612a9157612a90612e79565b5b612a9a82612ea8565b9050602081019050919050565b6000819050919050565b600060029050919050565b600081519050919050565b600081519050919050565b6000602082019050919050565b600081905092915050565b600082825260208201905092915050565b600082825260208201905092915050565b6000612b1782612c65565b9150612b2283612c65565b9250827fffffffffffffffffffffffffffffffffffffffffffffffffffffffffffffffff03821115612b5757612b56612dec565b5b828201905092915050565b6000612b6d82612c65565b9150612b7883612c65565b925082612b8857612b87612e1b565b5b828204905092915050565b6000612b9e82612c65565b9150612ba983612c65565b925082821015612bbc57612bbb612dec565b5b828203905092915050565b600073ffffffffffffffffffffffffffffffffffffffff82169050919050565b6000819050919050565b6000612bfc82612c45565b9050919050565b60008115159050919050565b6000819050919050565b60007fffffffff0000000000000000000000000000000000000000000000000000000082169050919050565b600073ffffffffffffffffffffffffffffffffffffffff82169050919050565b6000819050919050565b82818337600083830152505050565b60005b83811015612c9c578082015181840152602081019050612c81565b83811115612cab576000848401525b50505050565b6000612cbc82612c65565b91506000821415612cd057612ccf612dec565b5b600182039050919050565b60006002820490506001821680612cf357607f821691505b60208210811415612d0757612d06612e4a565b5b50919050565b6000612d20612d1b83612eb9565b612bc7565b9050919050565b6000612d3a612d3583612eb9565b612be7565b9050919050565b612d4a82612ea8565b810181811067ffffffffffffffff82111715612d6957612d68612e79565b5b80604052505050565b6000612d7d82612c65565b91507fffffffffffffffffffffffffffffffffffffffffffffffffffffffffffffffff821415612db057612daf612dec565b5b600182019050919050565b6000612dc682612c65565b9150612dd183612c65565b925082612de157612de0612e1b565b5b828206905092915050565b7f4e487b7100000000000000000000000000000000000000000000000000000000600052601160045260246000fd5b7f4e487b7100000000000000000000000000000000000000000000000000000000600052601260045260246000fd5b7f4e487b7100000000000000000000000000000000000000000000000000000000600052602260045260246000fd5b7f4e487b7100000000000000000000000000000000000000000000000000000000600052604160045260246000fd5b6000601f19601f8301169050919050565b60008160001c9050919050565b612ecf81612bf1565b8114612eda57600080fd5b50565b612ee681612c03565b8114612ef157600080fd5b50565b612efd81612c0f565b8114612f0857600080fd5b50565b612f1481612c19565b8114612f1f57600080fd5b50565b612f2b81612c65565b8114612f3657600080fd5b5056fea2646970667358221220afec94240421a3b5517750e96803c7fca4042d826c0bc28c9649be4dfd1d97b164736f6c6343000801003368747470733a2f2f73332d75732d776573742d322e616d617a6f6e6177732e636f6d2f756461636974792d626c6f636b636861696e2f63617073746f6e652f",
  "immutableReferences": {},
  "source": "pragma solidity >=0.8.0;\n\n// TODO define a contract call to the zokrates generated solidity contract <Verifier> or <renamedVerifier>\nimport './Verifier.sol';\nimport './ERC721Mintable.sol';\n\ncontract myVerifier is Verifier{}\n// TODO define another contract named SolnSquareVerifier that inherits from your ERC721Mintable class\n\ncontract SolnSquareVerifier is casaToken {\n    struct solutions {\n        uint index;\n        address addr;\n    }\n\n    solutions[] sols;\n\n    mapping (bytes32 => solutions) subbedSols;\n\n    event solutionAdded(solutions s);\n\n    function addSolution(bytes32 _hash, address _addr, uint256 _index ) internal{\n        subbedSols[_hash].index = _index;\n        subbedSols[_hash].addr = _addr;\n        sols.push(subbedSols[_hash]);\n        emit solutionAdded(subbedSols[_hash]);\n    }\n\n    function isSolutionUnique(bytes32 solHash) internal view returns (bool) {\n        return(subbedSols[solHash].addr != address(0));\n    }\n\n    function mint(\n        address to,\n        uint256 tokenId,\n        myVerifier.Proof memory proof\n\n    ) public{\n        bytes32 solHash = keccak256(abi.encode(to,tokenId,proof));\n        require (isSolutionUnique(solHash));\n\n        addSolution(solHash, to, tokenId);\n\n        super.mint(to, tokenId);\n        \n\n    }\n\n}\n\n\n\n\n\n\n\n\n\n\n\n\n\n\n\n\n\n\n\n\n\n\n\n\n\n\n\n\n",
  "sourcePath": "/home/tcdkzrz/Blockchain-Capstone/eth-contracts/contracts/SolnSquareVerifier.sol",
  "compiler": {
    "name": "solc",
    "version": "0.8.1+commit.df193b15.Emscripten.clang"
  },
  "schemaVersion": "3.4.1",
  "updatedAt": "2022-02-10T18:17:05.200Z",
  "networkType": "ethereum",
  "devdoc": {
    "kind": "dev",
    "methods": {
      "__callback(bytes32,string)": {
        "details": "The following `__callback` functions are just placeholders ideally      meant to be defined in child contract when proofs are used.      The function bodies simply silence compiler warnings."
      },
      "isApprovedForAll(address,address)": {
        "details": "Tells whether an operator is approved by a given owner",
        "params": {
          "operator": "operator address which you want to query the approval of",
          "owner": "owner address which you want to query the approval of"
        },
        "returns": {
          "_0": "bool whether the given operator is approved by the given owner"
        }
      },
      "setApprovalForAll(address,bool)": {
        "details": "Sets or unsets the approval of a given operator An operator is allowed to transfer all tokens of the sender on their behalf",
        "params": {
          "approved": "representing the status of the approval to be set",
          "to": "operator address to set the approval"
        }
      },
      "supportsInterface(bytes4)": {
        "details": "implement supportsInterface(bytes4) using a lookup table"
      },
      "tokenByIndex(uint256)": {
        "details": "Gets the token ID at a given index of all the tokens in this contract Reverts if the index is greater or equal to the total number of tokens",
        "params": {
          "index": "uint256 representing the index to be accessed of the tokens list"
        },
        "returns": {
          "_0": "uint256 token ID at the given index of the tokens list"
        }
      },
      "tokenOfOwnerByIndex(address,uint256)": {
        "details": "Gets the token ID at a given index of the tokens list of the requested owner",
        "params": {
          "index": "uint256 representing the index to be accessed of the requested tokens list",
          "owner": "address owning the tokens list to be accessed"
        },
        "returns": {
          "_0": "uint256 token ID at the given index of the tokens list owned by the requested address"
        }
      },
      "totalSupply()": {
        "details": "Gets the total amount of tokens stored by the contract",
        "returns": {
          "_0": "uint256 representing the total amount of tokens"
        }
      }
    },
    "version": 1
  },
  "userdoc": {
    "kind": "user",
    "methods": {},
    "version": 1
  }
}