{
  "contractName": "SolnSquareVerifier",
  "abi": [
    {
      "anonymous": false,
      "inputs": [
        {
          "indexed": true,
          "internalType": "address",
          "name": "owner",
          "type": "address"
        },
        {
          "indexed": true,
          "internalType": "address",
          "name": "approved",
          "type": "address"
        },
        {
          "indexed": true,
          "internalType": "uint256",
          "name": "tokenId",
          "type": "uint256"
        }
      ],
      "name": "Approval",
      "type": "event"
    },
    {
      "anonymous": false,
      "inputs": [
        {
          "indexed": true,
          "internalType": "address",
          "name": "owner",
          "type": "address"
        },
        {
          "indexed": true,
          "internalType": "address",
          "name": "operator",
          "type": "address"
        },
        {
          "indexed": false,
          "internalType": "bool",
          "name": "approved",
          "type": "bool"
        }
      ],
      "name": "ApprovalForAll",
      "type": "event"
    },
    {
      "anonymous": false,
      "inputs": [
        {
          "indexed": true,
          "internalType": "address",
          "name": "from",
          "type": "address"
        },
        {
          "indexed": true,
          "internalType": "address",
          "name": "to",
          "type": "address"
        },
        {
          "indexed": true,
          "internalType": "uint256",
          "name": "tokenId",
          "type": "uint256"
        }
      ],
      "name": "Transfer",
      "type": "event"
    },
    {
      "anonymous": false,
      "inputs": [
        {
          "indexed": false,
          "internalType": "address",
          "name": "owner",
          "type": "address"
        }
      ],
      "name": "ownershipTransferred",
      "type": "event"
    },
    {
      "anonymous": false,
      "inputs": [],
      "name": "paused",
      "type": "event"
    },
    {
      "anonymous": false,
      "inputs": [
        {
          "components": [
            {
              "internalType": "uint256",
              "name": "index",
              "type": "uint256"
            },
            {
              "internalType": "address",
              "name": "addr",
              "type": "address"
            }
          ],
          "indexed": false,
          "internalType": "struct SolnSquareVerifier.solutions",
          "name": "s",
          "type": "tuple"
        }
      ],
      "name": "solutionAdded",
      "type": "event"
    },
    {
      "anonymous": false,
      "inputs": [],
      "name": "unPaused",
      "type": "event"
    },
    {
      "inputs": [
        {
          "internalType": "bytes32",
          "name": "_myid",
          "type": "bytes32"
        },
        {
          "internalType": "string",
          "name": "_result",
          "type": "string"
        }
      ],
      "name": "__callback",
      "outputs": [],
      "stateMutability": "nonpayable",
      "type": "function"
    },
    {
      "inputs": [
        {
          "internalType": "bytes32",
          "name": "_myid",
          "type": "bytes32"
        },
        {
          "internalType": "string",
          "name": "_result",
          "type": "string"
        },
        {
          "internalType": "bytes",
          "name": "_proof",
          "type": "bytes"
        }
      ],
      "name": "__callback",
      "outputs": [],
      "stateMutability": "nonpayable",
      "type": "function"
    },
    {
      "inputs": [
        {
          "internalType": "address",
          "name": "to",
          "type": "address"
        },
        {
          "internalType": "uint256",
          "name": "tokenId",
          "type": "uint256"
        }
      ],
      "name": "approve",
      "outputs": [],
      "stateMutability": "nonpayable",
      "type": "function"
    },
    {
      "inputs": [
        {
          "internalType": "address",
          "name": "owner",
          "type": "address"
        }
      ],
      "name": "balanceOf",
      "outputs": [
        {
          "internalType": "uint256",
          "name": "",
          "type": "uint256"
        }
      ],
      "stateMutability": "view",
      "type": "function",
      "constant": true
    },
    {
      "inputs": [],
      "name": "baseTokenURI",
      "outputs": [
        {
          "internalType": "string",
          "name": "",
          "type": "string"
        }
      ],
      "stateMutability": "view",
      "type": "function",
      "constant": true
    },
    {
      "inputs": [
        {
          "internalType": "uint256",
          "name": "tokenId",
          "type": "uint256"
        }
      ],
      "name": "getApproved",
      "outputs": [
        {
          "internalType": "address",
          "name": "",
          "type": "address"
        }
      ],
      "stateMutability": "view",
      "type": "function",
      "constant": true
    },
    {
      "inputs": [],
      "name": "getOwner",
      "outputs": [
        {
          "internalType": "address",
          "name": "",
          "type": "address"
        }
      ],
      "stateMutability": "view",
      "type": "function",
      "constant": true
    },
    {
      "inputs": [
        {
          "internalType": "address",
          "name": "owner",
          "type": "address"
        },
        {
          "internalType": "address",
          "name": "operator",
          "type": "address"
        }
      ],
      "name": "isApprovedForAll",
      "outputs": [
        {
          "internalType": "bool",
          "name": "",
          "type": "bool"
        }
      ],
      "stateMutability": "view",
      "type": "function",
      "constant": true
    },
    {
      "inputs": [
        {
          "internalType": "address",
          "name": "to",
          "type": "address"
        },
        {
          "internalType": "uint256",
          "name": "tokenId",
          "type": "uint256"
        }
      ],
      "name": "mint",
      "outputs": [
        {
          "internalType": "bool",
          "name": "",
          "type": "bool"
        }
      ],
      "stateMutability": "nonpayable",
      "type": "function"
    },
    {
      "inputs": [],
      "name": "name",
      "outputs": [
        {
          "internalType": "string",
          "name": "",
          "type": "string"
        }
      ],
      "stateMutability": "view",
      "type": "function",
      "constant": true
    },
    {
      "inputs": [
        {
          "internalType": "uint256",
          "name": "tokenId",
          "type": "uint256"
        }
      ],
      "name": "ownerOf",
      "outputs": [
        {
          "internalType": "address",
          "name": "",
          "type": "address"
        }
      ],
      "stateMutability": "view",
      "type": "function",
      "constant": true
    },
    {
      "inputs": [
        {
          "internalType": "address",
          "name": "from",
          "type": "address"
        },
        {
          "internalType": "address",
          "name": "to",
          "type": "address"
        },
        {
          "internalType": "uint256",
          "name": "tokenId",
          "type": "uint256"
        }
      ],
      "name": "safeTransferFrom",
      "outputs": [],
      "stateMutability": "nonpayable",
      "type": "function"
    },
    {
      "inputs": [
        {
          "internalType": "address",
          "name": "from",
          "type": "address"
        },
        {
          "internalType": "address",
          "name": "to",
          "type": "address"
        },
        {
          "internalType": "uint256",
          "name": "tokenId",
          "type": "uint256"
        },
        {
          "internalType": "bytes",
          "name": "_data",
          "type": "bytes"
        }
      ],
      "name": "safeTransferFrom",
      "outputs": [],
      "stateMutability": "nonpayable",
      "type": "function"
    },
    {
      "inputs": [
        {
          "internalType": "address",
          "name": "to",
          "type": "address"
        },
        {
          "internalType": "bool",
          "name": "approved",
          "type": "bool"
        }
      ],
      "name": "setApprovalForAll",
      "outputs": [],
      "stateMutability": "nonpayable",
      "type": "function"
    },
    {
      "inputs": [
        {
          "internalType": "bool",
          "name": "mode",
          "type": "bool"
        }
      ],
      "name": "setPause",
      "outputs": [],
      "stateMutability": "nonpayable",
      "type": "function"
    },
    {
      "inputs": [
        {
          "internalType": "bytes4",
          "name": "interfaceId",
          "type": "bytes4"
        }
      ],
      "name": "supportsInterface",
      "outputs": [
        {
          "internalType": "bool",
          "name": "",
          "type": "bool"
        }
      ],
      "stateMutability": "view",
      "type": "function",
      "constant": true
    },
    {
      "inputs": [],
      "name": "symbol",
      "outputs": [
        {
          "internalType": "string",
          "name": "",
          "type": "string"
        }
      ],
      "stateMutability": "view",
      "type": "function",
      "constant": true
    },
    {
      "inputs": [
        {
          "internalType": "uint256",
          "name": "index",
          "type": "uint256"
        }
      ],
      "name": "tokenByIndex",
      "outputs": [
        {
          "internalType": "uint256",
          "name": "",
          "type": "uint256"
        }
      ],
      "stateMutability": "view",
      "type": "function",
      "constant": true
    },
    {
      "inputs": [
        {
          "internalType": "address",
          "name": "owner",
          "type": "address"
        },
        {
          "internalType": "uint256",
          "name": "index",
          "type": "uint256"
        }
      ],
      "name": "tokenOfOwnerByIndex",
      "outputs": [
        {
          "internalType": "uint256",
          "name": "",
          "type": "uint256"
        }
      ],
      "stateMutability": "view",
      "type": "function",
      "constant": true
    },
    {
      "inputs": [
        {
          "internalType": "uint256",
          "name": "tokenId",
          "type": "uint256"
        }
      ],
      "name": "tokenURI",
      "outputs": [
        {
          "internalType": "string",
          "name": "",
          "type": "string"
        }
      ],
      "stateMutability": "view",
      "type": "function",
      "constant": true
    },
    {
      "inputs": [],
      "name": "totalSupply",
      "outputs": [
        {
          "internalType": "uint256",
          "name": "",
          "type": "uint256"
        }
      ],
      "stateMutability": "view",
      "type": "function",
      "constant": true
    },
    {
      "inputs": [
        {
          "internalType": "address",
          "name": "from",
          "type": "address"
        },
        {
          "internalType": "address",
          "name": "to",
          "type": "address"
        },
        {
          "internalType": "uint256",
          "name": "tokenId",
          "type": "uint256"
        }
      ],
      "name": "transferFrom",
      "outputs": [],
      "stateMutability": "nonpayable",
      "type": "function"
    },
    {
      "inputs": [
        {
          "internalType": "address",
          "name": "newOwner",
          "type": "address"
        }
      ],
      "name": "transferOwnership",
      "outputs": [],
      "stateMutability": "nonpayable",
      "type": "function"
    },
    {
      "inputs": [
        {
          "components": [
            {
              "components": [
                {
                  "internalType": "uint256",
                  "name": "X",
                  "type": "uint256"
                },
                {
                  "internalType": "uint256",
                  "name": "Y",
                  "type": "uint256"
                }
              ],
              "internalType": "struct Pairing.G1Point",
              "name": "a",
              "type": "tuple"
            },
            {
              "components": [
                {
                  "internalType": "uint256[2]",
                  "name": "X",
                  "type": "uint256[2]"
                },
                {
                  "internalType": "uint256[2]",
                  "name": "Y",
                  "type": "uint256[2]"
                }
              ],
              "internalType": "struct Pairing.G2Point",
              "name": "b",
              "type": "tuple"
            },
            {
              "components": [
                {
                  "internalType": "uint256",
                  "name": "X",
                  "type": "uint256"
                },
                {
                  "internalType": "uint256",
                  "name": "Y",
                  "type": "uint256"
                }
              ],
              "internalType": "struct Pairing.G1Point",
              "name": "c",
              "type": "tuple"
            }
          ],
          "internalType": "struct Verifier.Proof",
          "name": "proof",
          "type": "tuple"
        },
        {
          "internalType": "uint256[2]",
          "name": "input",
          "type": "uint256[2]"
        }
      ],
      "name": "verifyTx",
      "outputs": [
        {
          "internalType": "bool",
          "name": "r",
          "type": "bool"
        }
      ],
      "stateMutability": "view",
      "type": "function",
      "constant": true
    },
    {
      "inputs": [],
      "name": "getSolutions",
      "outputs": [
        {
          "components": [
            {
              "internalType": "uint256",
              "name": "index",
              "type": "uint256"
            },
            {
              "internalType": "address",
              "name": "addr",
              "type": "address"
            }
          ],
          "internalType": "struct SolnSquareVerifier.solutions[]",
          "name": "",
          "type": "tuple[]"
        }
      ],
      "stateMutability": "view",
      "type": "function",
      "constant": true
    },
    {
      "inputs": [
        {
          "internalType": "bytes32",
          "name": "_hash",
          "type": "bytes32"
        },
        {
          "internalType": "address",
          "name": "_addr",
          "type": "address"
        },
        {
          "internalType": "uint256",
          "name": "_index",
          "type": "uint256"
        }
      ],
      "name": "addSolution",
      "outputs": [],
      "stateMutability": "nonpayable",
      "type": "function"
    },
    {
      "inputs": [
        {
          "internalType": "address",
          "name": "to",
          "type": "address"
        },
        {
          "internalType": "uint256",
          "name": "tokenId",
          "type": "uint256"
        },
        {
          "components": [
            {
              "components": [
                {
                  "internalType": "uint256",
                  "name": "X",
                  "type": "uint256"
                },
                {
                  "internalType": "uint256",
                  "name": "Y",
                  "type": "uint256"
                }
              ],
              "internalType": "struct Pairing.G1Point",
              "name": "a",
              "type": "tuple"
            },
            {
              "components": [
                {
                  "internalType": "uint256[2]",
                  "name": "X",
                  "type": "uint256[2]"
                },
                {
                  "internalType": "uint256[2]",
                  "name": "Y",
                  "type": "uint256[2]"
                }
              ],
              "internalType": "struct Pairing.G2Point",
              "name": "b",
              "type": "tuple"
            },
            {
              "components": [
                {
                  "internalType": "uint256",
                  "name": "X",
                  "type": "uint256"
                },
                {
                  "internalType": "uint256",
                  "name": "Y",
                  "type": "uint256"
                }
              ],
              "internalType": "struct Pairing.G1Point",
              "name": "c",
              "type": "tuple"
            }
          ],
          "internalType": "struct Verifier.Proof",
          "name": "proof",
          "type": "tuple"
        }
      ],
      "name": "getProofHash",
      "outputs": [
        {
          "internalType": "bytes32",
          "name": "",
          "type": "bytes32"
        }
      ],
      "stateMutability": "pure",
      "type": "function",
      "constant": true
    },
    {
      "inputs": [
        {
          "internalType": "address",
          "name": "to",
          "type": "address"
        },
        {
          "internalType": "uint256",
          "name": "tokenId",
          "type": "uint256"
        },
        {
          "components": [
            {
              "components": [
                {
                  "internalType": "uint256",
                  "name": "X",
                  "type": "uint256"
                },
                {
                  "internalType": "uint256",
                  "name": "Y",
                  "type": "uint256"
                }
              ],
              "internalType": "struct Pairing.G1Point",
              "name": "a",
              "type": "tuple"
            },
            {
              "components": [
                {
                  "internalType": "uint256[2]",
                  "name": "X",
                  "type": "uint256[2]"
                },
                {
                  "internalType": "uint256[2]",
                  "name": "Y",
                  "type": "uint256[2]"
                }
              ],
              "internalType": "struct Pairing.G2Point",
              "name": "b",
              "type": "tuple"
            },
            {
              "components": [
                {
                  "internalType": "uint256",
                  "name": "X",
                  "type": "uint256"
                },
                {
                  "internalType": "uint256",
                  "name": "Y",
                  "type": "uint256"
                }
              ],
              "internalType": "struct Pairing.G1Point",
              "name": "c",
              "type": "tuple"
            }
          ],
          "internalType": "struct Verifier.Proof",
          "name": "proof",
          "type": "tuple"
        },
        {
          "internalType": "uint256[2]",
          "name": "input",
          "type": "uint256[2]"
        }
      ],
      "name": "mintWithProof",
      "outputs": [],
      "stateMutability": "nonpayable",
      "type": "function"
    }
  ],
  "bytecode": "0x60806040523480156200001157600080fd5b506040518060400160405280600981526020017f63617361546f6b656e00000000000000000000000000000000000000000000008152506040518060400160405280600381526020017f43535400000000000000000000000000000000000000000000000000000000008152506040518060600160405280603f815260200162005418603f9139336000806101000a81548173ffffffffffffffffffffffffffffffffffffffff021916908373ffffffffffffffffffffffffffffffffffffffff1602179055507fac9a252a3ed2d3fcc198677953ffe98ac492e191a4605978c655f8ce4ae80676336040516200010991906200036c565b60405180910390a160008060146101000a81548160ff0219169083151502179055507f061a46a930b541bca81319fec40322a6b46378b59a6e2976a8d93a5d2e4bf2d360405160405180910390a16200016f6301ffc9a760e01b6200020b60201b60201c565b620001876380ac58cd60e01b6200020b60201b60201c565b6200019f63780e9d6360e01b6200020b60201b60201c565b82600f9080519060200190620001b7929190620002ab565b508160109080519060200190620001d0929190620002ab565b508060119080519060200190620001e9929190620002ab565b5062000202635b5e139f60e01b6200020b60201b60201c565b50505062000422565b63ffffffff60e01b817bffffffffffffffffffffffffffffffffffffffffffffffffffffffff191614156200023f57600080fd5b6001806000837bffffffffffffffffffffffffffffffffffffffffffffffffffffffff19167bffffffffffffffffffffffffffffffffffffffffffffffffffffffff1916815260200190815260200160002060006101000a81548160ff02191690831515021790555050565b828054620002b990620003bd565b90600052602060002090601f016020900481019282620002dd576000855562000329565b82601f10620002f857805160ff191683800117855562000329565b8280016001018555821562000329579182015b82811115620003285782518255916020019190600101906200030b565b5b5090506200033891906200033c565b5090565b5b80821115620003575760008160009055506001016200033d565b5090565b620003668162000389565b82525050565b60006020820190506200038360008301846200035b565b92915050565b600062000396826200039d565b9050919050565b600073ffffffffffffffffffffffffffffffffffffffff82169050919050565b60006002820490506001821680620003d657607f821691505b60208210811415620003ed57620003ec620003f3565b5b50919050565b7f4e487b7100000000000000000000000000000000000000000000000000000000600052602260045260246000fd5b614fe680620004326000396000f3fe608060405234801561001057600080fd5b50600436106101c45760003560e01c80636352211e116100f9578063b88d4fde11610097578063d547cfb711610071578063d547cfb71461053b578063dca5d45b14610559578063e985e9c514610575578063f2fde38b146105a5576101c4565b8063b88d4fde146104d3578063bedb86fb146104ef578063c87b56dd1461050b576101c4565b80638881e19a116100d35780638881e19a1461044b578063893d20e81461047b57806395d89b4114610499578063a22cb465146104b7576101c4565b80636352211e146103cf5780636d0bc57f146103ff57806370a082311461041b576101c4565b80632f745c591161016657806340c10f191161014057806340c10f191461032357806342842e0e1461035357806343cd76fc1461036f5780634f6ccce71461039f576101c4565b80632f745c59146102b9578063367c5adc146102e957806338bbfa5014610307576101c4565b8063095ea7b3116101a2578063095ea7b31461024757806318160ddd1461026357806323b872dd1461028157806327dc297e1461029d576101c4565b806301ffc9a7146101c957806306fdde03146101f9578063081812fc14610217575b600080fd5b6101e360048036038101906101de9190614388565b6105c1565b6040516101f09190614856565b60405180910390f35b610201610629565b60405161020e919061488c565b60405180910390f35b610231600480360381019061022c9190614418565b6106bb565b60405161023e9190614795565b60405180910390f35b610261600480360381019061025c919061414c565b6106f8565b005b61026b610851565b6040516102789190614949565b60405180910390f35b61029b60048036038101906102969190614046565b61085e565b005b6102b760048036038101906102b291906142b5565b610881565b005b6102d360048036038101906102ce919061414c565b610903565b6040516102e09190614949565b60405180910390f35b6102f16109a3565b6040516102fe9190614834565b60405180910390f35b610321600480360381019061031c9190614309565b610a62565b005b61033d6004803603810190610338919061414c565b610a85565b60405161034a9190614856565b60405180910390f35b61036d60048036038101906103689190614046565b610afd565b005b610389600480360381019061038491906143da565b610b1d565b6040516103969190614856565b60405180910390f35b6103b960048036038101906103b49190614418565b610c5d565b6040516103c69190614949565b60405180910390f35b6103e960048036038101906103e49190614418565b610cbe565b6040516103f69190614795565b60405180910390f35b610419600480360381019061041491906141d8565b610cfb565b005b61043560048036038101906104309190613fe1565b610d4c565b6040516104429190614949565b60405180910390f35b61046560048036038101906104609190614188565b610d9c565b6040516104729190614871565b60405180910390f35b610483610dd2565b6040516104909190614795565b60405180910390f35b6104a1610dfb565b6040516104ae919061488c565b60405180910390f35b6104d160048036038101906104cc9190614110565b610e8d565b005b6104ed60048036038101906104e89190614095565b610fc3565b005b6105096004803603810190610504919061423d565b610fe9565b005b61052560048036038101906105209190614418565b6110c9565b604051610532919061488c565b60405180910390f35b610543611180565b604051610550919061488c565b60405180910390f35b610573600480360381019061056e9190614266565b611212565b005b61058f600480360381019061058a919061400a565b611375565b60405161059c9190614856565b60405180910390f35b6105bf60048036038101906105ba9190613fe1565b611409565b005b600060016000837bffffffffffffffffffffffffffffffffffffffffffffffffffffffff19167bffffffffffffffffffffffffffffffffffffffffffffffffffffffff1916815260200190815260200160002060009054906101000a900460ff169050919050565b6060600f805461063890614cae565b80601f016020809104026020016040519081016040528092919081815260200182805461066490614cae565b80156106b15780601f10610686576101008083540402835291602001916106b1565b820191906000526020600020905b81548152906001019060200180831161069457829003601f168201915b5050505050905090565b60006003600083815260200190815260200160002060009054906101000a900473ffffffffffffffffffffffffffffffffffffffff169050919050565b61070181610cbe565b73ffffffffffffffffffffffffffffffffffffffff168273ffffffffffffffffffffffffffffffffffffffff16141561073957600080fd5b3373ffffffffffffffffffffffffffffffffffffffff16610758610dd2565b73ffffffffffffffffffffffffffffffffffffffff16148061078f575061078e61078182610cbe565b610789610dd2565b611375565b5b61079857600080fd5b816003600083815260200190815260200160002060006101000a81548173ffffffffffffffffffffffffffffffffffffffff021916908373ffffffffffffffffffffffffffffffffffffffff160217905550808273ffffffffffffffffffffffffffffffffffffffff1661080b83610cbe565b73ffffffffffffffffffffffffffffffffffffffff167f8c5be1e5ebec7d5bd14f71427d1e84f3dd0314c0f7b2291e5b200ac8c7c3b92560405160405180910390a45050565b6000600880549050905090565b61086833826114de565b61087157600080fd5b61087c838383611573565b505050565b6108ff8282600067ffffffffffffffff8111156108c7577f4e487b7100000000000000000000000000000000000000000000000000000000600052604160045260246000fd5b6040519080825280601f01601f1916602001820160405280156108f95781602001600182028036833780820191505090505b50610a62565b5050565b600061090e83610d4c565b821061091957600080fd5b600660008473ffffffffffffffffffffffffffffffffffffffff1673ffffffffffffffffffffffffffffffffffffffff1681526020019081526020016000208281548110610990577f4e487b7100000000000000000000000000000000000000000000000000000000600052603260045260246000fd5b9060005260206000200154905092915050565b60606013805480602002602001604051908101604052809291908181526020016000905b82821015610a595783829060005260206000209060020201604051806040016040529081600082015481526020016001820160009054906101000a900473ffffffffffffffffffffffffffffffffffffffff1673ffffffffffffffffffffffffffffffffffffffff1673ffffffffffffffffffffffffffffffffffffffff1681525050815260200190600101906109c7565b50505050905090565b6000801b600d60008060001b815260200190815260200160002081905550505050565b60008060009054906101000a900473ffffffffffffffffffffffffffffffffffffffff1673ffffffffffffffffffffffffffffffffffffffff163373ffffffffffffffffffffffffffffffffffffffff1614610ae057600080fd5b610aea8383611597565b610af3826115b8565b6001905092915050565b610b1883838360405180602001604052806000815250610fc3565b505050565b600080600267ffffffffffffffff811115610b61577f4e487b7100000000000000000000000000000000000000000000000000000000600052604160045260246000fd5b604051908082528060200260200182016040528015610b8f5781602001602082028036833780820191505090505b50905060005b6002811015610c3457838160028110610bd7577f4e487b7100000000000000000000000000000000000000000000000000000000600052603260045260246000fd5b6020020151828281518110610c15577f4e487b7100000000000000000000000000000000000000000000000000000000600052603260045260246000fd5b6020026020010181815250508080610c2c90614d45565b915050610b95565b506000610c4182866116d2565b1415610c51576001915050610c57565b60009150505b92915050565b6000610c67610851565b8210610c7257600080fd5b60088281548110610cac577f4e487b7100000000000000000000000000000000000000000000000000000000600052603260045260246000fd5b90600052602060002001549050919050565b60006002600083815260200190815260200160002060009054906101000a900473ffffffffffffffffffffffffffffffffffffffff169050919050565b6000610d08858585610d9c565b9050610d1381611901565b610d1c57600080fd5b610d268383610b1d565b610d2f57600080fd5b610d3a818686611212565b610d448585610a85565b505050505050565b6000610d95600460008473ffffffffffffffffffffffffffffffffffffffff1673ffffffffffffffffffffffffffffffffffffffff16815260200190815260200160002061196f565b9050919050565b6000838383604051602001610db3939291906147fc565b6040516020818303038152906040528051906020012090509392505050565b60008060009054906101000a900473ffffffffffffffffffffffffffffffffffffffff16905090565b606060108054610e0a90614cae565b80601f0160208091040260200160405190810160405280929190818152602001828054610e3690614cae565b8015610e835780601f10610e5857610100808354040283529160200191610e83565b820191906000526020600020905b815481529060010190602001808311610e6657829003601f168201915b5050505050905090565b3373ffffffffffffffffffffffffffffffffffffffff168273ffffffffffffffffffffffffffffffffffffffff161415610ec657600080fd5b80600560003373ffffffffffffffffffffffffffffffffffffffff1673ffffffffffffffffffffffffffffffffffffffff16815260200190815260200160002060008473ffffffffffffffffffffffffffffffffffffffff1673ffffffffffffffffffffffffffffffffffffffff16815260200190815260200160002060006101000a81548160ff0219169083151502179055508173ffffffffffffffffffffffffffffffffffffffff163373ffffffffffffffffffffffffffffffffffffffff167f17307eab39ab6107e8899845ad3d59bd9653f200f220920489ca2b5937696c3183604051610fb79190614856565b60405180910390a35050565b610fce84848461085e565b610fda8484848461197d565b610fe357600080fd5b50505050565b60008054906101000a900473ffffffffffffffffffffffffffffffffffffffff1673ffffffffffffffffffffffffffffffffffffffff163373ffffffffffffffffffffffffffffffffffffffff161461104157600080fd5b80600060146101000a81548160ff021916908315150217905550600115158115151415611099577f5c975abbf8c4d6efa68fc896e233763eb503f2318260b7bf59b19412913788b260405160405180910390a16110c6565b7f061a46a930b541bca81319fec40322a6b46378b59a6e2976a8d93a5d2e4bf2d360405160405180910390a15b50565b60606110d482611a94565b6110dd57600080fd5b6012600083815260200190815260200160002080546110fb90614cae565b80601f016020809104026020016040519081016040528092919081815260200182805461112790614cae565b80156111745780601f1061114957610100808354040283529160200191611174565b820191906000526020600020905b81548152906001019060200180831161115757829003601f168201915b50505050509050919050565b60606011805461118f90614cae565b80601f01602080910402602001604051908101604052809291908181526020018280546111bb90614cae565b80156112085780601f106111dd57610100808354040283529160200191611208565b820191906000526020600020905b8154815290600101906020018083116111eb57829003601f168201915b5050505050905090565b6000601460008581526020019081526020016000209050818160000181905550828160010160006101000a81548173ffffffffffffffffffffffffffffffffffffffff021916908373ffffffffffffffffffffffffffffffffffffffff1602179055506013601460008681526020019081526020016000209080600181540180825580915050600190039060005260206000209060020201600090919091909150600082015481600001556001820160009054906101000a900473ffffffffffffffffffffffffffffffffffffffff168160010160006101000a81548173ffffffffffffffffffffffffffffffffffffffff021916908373ffffffffffffffffffffffffffffffffffffffff16021790555050507f9272592759e835de7a1600313f5976da2b2c628d0235ac3e72ee3fe781f7f13e60146000868152602001908152602001600020604051611367919061492e565b60405180910390a150505050565b6000600560008473ffffffffffffffffffffffffffffffffffffffff1673ffffffffffffffffffffffffffffffffffffffff16815260200190815260200160002060008373ffffffffffffffffffffffffffffffffffffffff1673ffffffffffffffffffffffffffffffffffffffff16815260200190815260200160002060009054906101000a900460ff16905092915050565b60008054906101000a900473ffffffffffffffffffffffffffffffffffffffff1673ffffffffffffffffffffffffffffffffffffffff163373ffffffffffffffffffffffffffffffffffffffff161461146157600080fd5b600073ffffffffffffffffffffffffffffffffffffffff168173ffffffffffffffffffffffffffffffffffffffff16141561149b57600080fd5b806000806101000a81548173ffffffffffffffffffffffffffffffffffffffff021916908373ffffffffffffffffffffffffffffffffffffffff16021790555050565b6000806114ea83610cbe565b90508073ffffffffffffffffffffffffffffffffffffffff168473ffffffffffffffffffffffffffffffffffffffff16148061155957508373ffffffffffffffffffffffffffffffffffffffff16611541846106bb565b73ffffffffffffffffffffffffffffffffffffffff16145b8061156a57506115698185611375565b5b91505092915050565b61157e838383611b06565b6115888382611cff565b6115928282611f28565b505050565b6115a18282611fec565b6115ab8282611f28565b6115b48161212e565b5050565b6115c181611a94565b611600576040517f08c379a00000000000000000000000000000000000000000000000000000000081526004016115f79061490e565b60405180910390fd5b600061160b82612177565b905060006116a36011805461161f90614cae565b80601f016020809104026020016040519081016040528092919081815260200182805461164b90614cae565b80156116985780601f1061166d57610100808354040283529160200191611698565b820191906000526020600020905b81548152906001019060200180831161167b57829003601f168201915b505050505083612324565b9050806012600085815260200190815260200160002090805190602001906116cc929190613b5e565b50505050565b6000807f30644e72e131a029b85045b68181585d2833e84879b9709143e1f593f000000190506000611702612368565b9050806080015151600186516117189190614aaf565b1461172257600080fd5b60006040518060400160405280600081526020016000815250905060005b865181101561184d5783878281518110611783577f4e487b7100000000000000000000000000000000000000000000000000000000600052603260045260246000fd5b60200260200101511061179557600080fd5b6118388261183385608001516001856117ae9190614aaf565b815181106117e5577f4e487b7100000000000000000000000000000000000000000000000000000000600052603260045260246000fd5b60200260200101518a8581518110611826577f4e487b7100000000000000000000000000000000000000000000000000000000600052603260045260246000fd5b602002602001015161287b565b612994565b9150808061184590614d45565b915050611740565b5061189d818360800151600081518110611890577f4e487b7100000000000000000000000000000000000000000000000000000000600052603260045260246000fd5b6020026020010151612994565b90506118e3856000015186602001516118b584612af9565b85604001516118c78a60400151612af9565b87606001516118d98960000151612af9565b8960200151612b9e565b6118f357600193505050506118fb565b600093505050505b92915050565b60008073ffffffffffffffffffffffffffffffffffffffff166014600084815260200190815260200160002060010160009054906101000a900473ffffffffffffffffffffffffffffffffffffffff1673ffffffffffffffffffffffffffffffffffffffff16149050919050565b600081600001549050919050565b600061199e8473ffffffffffffffffffffffffffffffffffffffff16612ee7565b6119ab5760019050611a8c565b60008473ffffffffffffffffffffffffffffffffffffffff1663150b7a02338887876040518563ffffffff1660e01b81526004016119ec94939291906147b0565b602060405180830381600087803b158015611a0657600080fd5b505af1158015611a1a573d6000803e3d6000fd5b505050506040513d601f19601f82011682018060405250810190611a3e91906143b1565b905063150b7a0260e01b7bffffffffffffffffffffffffffffffffffffffffffffffffffffffff1916817bffffffffffffffffffffffffffffffffffffffffffffffffffffffff1916149150505b949350505050565b6000806002600084815260200190815260200160002060009054906101000a900473ffffffffffffffffffffffffffffffffffffffff169050600073ffffffffffffffffffffffffffffffffffffffff168173ffffffffffffffffffffffffffffffffffffffff161415915050919050565b611b0f81610cbe565b73ffffffffffffffffffffffffffffffffffffffff168373ffffffffffffffffffffffffffffffffffffffff1614611b4657600080fd5b600073ffffffffffffffffffffffffffffffffffffffff168273ffffffffffffffffffffffffffffffffffffffff161415611bb6576040517f08c379a0000000000000000000000000000000000000000000000000000000008152600401611bad906148ce565b60405180910390fd5b611bbf81612f0a565b611c06600460008573ffffffffffffffffffffffffffffffffffffffff1673ffffffffffffffffffffffffffffffffffffffff168152602001908152602001600020612fc8565b611c4d600460008473ffffffffffffffffffffffffffffffffffffffff1673ffffffffffffffffffffffffffffffffffffffff168152602001908152602001600020613024565b816002600083815260200190815260200160002060006101000a81548173ffffffffffffffffffffffffffffffffffffffff021916908373ffffffffffffffffffffffffffffffffffffffff160217905550808273ffffffffffffffffffffffffffffffffffffffff168473ffffffffffffffffffffffffffffffffffffffff167fddf252ad1be2c89b69c2b068fc378daa952ba7f163c4a11628f55a4df523b3ef60405160405180910390a4505050565b60006001600660008573ffffffffffffffffffffffffffffffffffffffff1673ffffffffffffffffffffffffffffffffffffffff16815260200190815260200160002080549050611d509190614b90565b9050600060076000848152602001908152602001600020549050818114611e97576000600660008673ffffffffffffffffffffffffffffffffffffffff1673ffffffffffffffffffffffffffffffffffffffff1681526020019081526020016000208381548110611dea577f4e487b7100000000000000000000000000000000000000000000000000000000600052603260045260246000fd5b9060005260206000200154905080600660008773ffffffffffffffffffffffffffffffffffffffff1673ffffffffffffffffffffffffffffffffffffffff1681526020019081526020016000208381548110611e6f577f4e487b7100000000000000000000000000000000000000000000000000000000600052603260045260246000fd5b9060005260206000200181905550816007600083815260200190815260200160002081905550505b600660008573ffffffffffffffffffffffffffffffffffffffff1673ffffffffffffffffffffffffffffffffffffffff168152602001908152602001600020805480611f0c577f4e487b7100000000000000000000000000000000000000000000000000000000600052603160045260246000fd5b6001900381819060005260206000200160009055905550505050565b600660008373ffffffffffffffffffffffffffffffffffffffff1673ffffffffffffffffffffffffffffffffffffffff168152602001908152602001600020805490506007600083815260200190815260200160002081905550600660008373ffffffffffffffffffffffffffffffffffffffff1673ffffffffffffffffffffffffffffffffffffffff1681526020019081526020016000208190806001815401808255809150506001900390600052602060002001600090919091909150555050565b611ff581611a94565b15612035576040517f08c379a000000000000000000000000000000000000000000000000000000000815260040161202c906148ee565b60405180910390fd5b816002600083815260200190815260200160002060006101000a81548173ffffffffffffffffffffffffffffffffffffffff021916908373ffffffffffffffffffffffffffffffffffffffff1602179055506120ce600460008473ffffffffffffffffffffffffffffffffffffffff1673ffffffffffffffffffffffffffffffffffffffff168152602001908152602001600020613024565b808273ffffffffffffffffffffffffffffffffffffffff16600073ffffffffffffffffffffffffffffffffffffffff167fddf252ad1be2c89b69c2b068fc378daa952ba7f163c4a11628f55a4df523b3ef60405160405180910390a45050565b6008805490506009600083815260200190815260200160002081905550600881908060018154018082558091505060019003906000526020600020016000909190919091505550565b606060008214156121bf576040518060400160405280600181526020017f3000000000000000000000000000000000000000000000000000000000000000815250905061231f565b600082905060005b600082146121f15780806121da90614d45565b915050600a826121ea9190614b05565b91506121c7565b60008167ffffffffffffffff811115612233577f4e487b7100000000000000000000000000000000000000000000000000000000600052604160045260246000fd5b6040519080825280601f01601f1916602001820160405280156122655781602001600182028036833780820191505090505b5090505b600085146123185760018261227e9190614b90565b9150600a8561228d9190614d8e565b60306122999190614aaf565b60f81b8183815181106122d5577f4e487b7100000000000000000000000000000000000000000000000000000000600052603260045260246000fd5b60200101907effffffffffffffffffffffffffffffffffffffffffffffffffffffffffffff1916908160001a905350600a856123119190614b05565b9450612269565b8093505050505b919050565b6060612360838360405180602001604052806000815250604051806020016040528060008152506040518060200160405280600081525061303a565b905092915050565b612370613be4565b60405180604001604052807f0d76cb17c3348c6152d30390841346ab18d22aa02fb326a2ca070ba9c3be191181526020017f04c0cab07dee0aed1a9f4f5be6f473ce226423bfa9740398cdcb22d8d44f855a8152508160000181905250604051806040016040528060405180604001604052807f2ddc64ef38b7f161995bfece88f0fe4b615beda802d2332a41ba0cb163589ec581526020017f2040023fbbf005a4e6486cefce8d1f39c8e08cbc72704b696e59e1e660928325815250815260200160405180604001604052807f12fcea62eace606c3b082b496a68a7618d93e2a19f9d4cf47f1f184341ca288c81526020017f081b3021d058318a7725b3d9cf963d0dca7b2700f2b6f16008b6fe217be56c938152508152508160200181905250604051806040016040528060405180604001604052807f16f7a186e7bef410b034ca9ee92ff3c76a9e1ea8c28789a0ae49e67910571bd081526020017f1562aa02bf12dfaa6600a4b6d1946e0e9c00e55b750c74ca2fa96e8411f4c889815250815260200160405180604001604052807f2a36a2779760a856c7d3816db1a2914e33aa7f0cb0556239e14e9ef247444fc181526020017f0a91a4516a612db37d90ef83cbe9adcaca9ca19c9d0c31e0827af7c865c7a7378152508152508160400181905250604051806040016040528060405180604001604052807f091e746e01c7011129eea690d0c60bdea635de253bdef10213a546c543f8017681526020017f276e9af82144373b6a6d0034bf962a304d61470d457de8473c49c1caee9cb2b0815250815260200160405180604001604052807f120eccf240fdfbd004b8775c29f1ceaa4c9188b8ad9eb28c750a8a80063f0f9481526020017ea70580ee6e12aabfaea621f20e77ad5c67b678fbca6f4bb7aad355b11f24748152508152508160600181905250600367ffffffffffffffff81111561265c577f4e487b7100000000000000000000000000000000000000000000000000000000600052604160045260246000fd5b60405190808252806020026020018201604052801561269557816020015b612682613c2b565b81526020019060019003908161267a5790505b50816080018190525060405180604001604052807f0b427ca71fc2121534ccccc17292dfbe096fe05f7183dca0bbe0022347fe5dc381526020017f1e7c143df8ac90dab0986db9e691249c66f1b7ab70dc7e2d80b2d991b49fcca48152508160800151600081518110612731577f4e487b7100000000000000000000000000000000000000000000000000000000600052603260045260246000fd5b602002602001018190525060405180604001604052807f1995e549f680f2bf7a37d9a1a976424375eb16a5d75df6945525b716d62a44b181526020017f1e514eb242b2d08170ee47527f0248ddda176d4ada1e25d3fa9c49a8936c4e3d81525081608001516001815181106127cf577f4e487b7100000000000000000000000000000000000000000000000000000000600052603260045260246000fd5b602002602001018190525060405180604001604052807f172770ed528e0d387fd667b3314afa29522f77f73e1809de836d1b7c7235b53d81526020017f16d64447a733b31cbe160eb5e5f2d8eb4ba7ec78869d1c655c4136604f90c556815250816080015160028151811061286d577f4e487b7100000000000000000000000000000000000000000000000000000000600052603260045260246000fd5b602002602001018190525090565b612883613c2b565b61288b613c45565b8360000151816000600381106128ca577f4e487b7100000000000000000000000000000000000000000000000000000000600052603260045260246000fd5b602002018181525050836020015181600160038110612912577f4e487b7100000000000000000000000000000000000000000000000000000000600052603260045260246000fd5b6020020181815250508281600260038110612956577f4e487b7100000000000000000000000000000000000000000000000000000000600052603260045260246000fd5b602002018181525050600060608360808460076107d05a03fa9050806000811461297f57612981565bfe5b508061298c57600080fd5b505092915050565b61299c613c2b565b6129a4613c67565b8360000151816000600481106129e3577f4e487b7100000000000000000000000000000000000000000000000000000000600052603260045260246000fd5b602002018181525050836020015181600160048110612a2b577f4e487b7100000000000000000000000000000000000000000000000000000000600052603260045260246000fd5b602002018181525050826000015181600260048110612a73577f4e487b7100000000000000000000000000000000000000000000000000000000600052603260045260246000fd5b602002018181525050826020015181600360048110612abb577f4e487b7100000000000000000000000000000000000000000000000000000000600052603260045260246000fd5b602002018181525050600060608360c08460066107d05a03fa90508060008114612ae457612ae6565bfe5b5080612af157600080fd5b505092915050565b612b01613c2b565b60007f30644e72e131a029b85045b68181585d97816a916871ca8d3c208c16d87cfd47905060008360000151148015612b3e575060008360200151145b15612b62576040518060400160405280600081526020016000815250915050612b99565b604051806040016040528084600001518152602001828560200151612b879190614d8e565b83612b929190614b90565b8152509150505b919050565b600080600467ffffffffffffffff811115612be2577f4e487b7100000000000000000000000000000000000000000000000000000000600052604160045260246000fd5b604051908082528060200260200182016040528015612c1b57816020015b612c08613c2b565b815260200190600190039081612c005790505b5090506000600467ffffffffffffffff811115612c61577f4e487b7100000000000000000000000000000000000000000000000000000000600052604160045260246000fd5b604051908082528060200260200182016040528015612c9a57816020015b612c87613c89565b815260200190600190039081612c7f5790505b5090508a82600081518110612cd8577f4e487b7100000000000000000000000000000000000000000000000000000000600052603260045260246000fd5b60200260200101819052508882600181518110612d1e577f4e487b7100000000000000000000000000000000000000000000000000000000600052603260045260246000fd5b60200260200101819052508682600281518110612d64577f4e487b7100000000000000000000000000000000000000000000000000000000600052603260045260246000fd5b60200260200101819052508482600381518110612daa577f4e487b7100000000000000000000000000000000000000000000000000000000600052603260045260246000fd5b60200260200101819052508981600081518110612df0577f4e487b7100000000000000000000000000000000000000000000000000000000600052603260045260246000fd5b60200260200101819052508781600181518110612e36577f4e487b7100000000000000000000000000000000000000000000000000000000600052603260045260246000fd5b60200260200101819052508581600281518110612e7c577f4e487b7100000000000000000000000000000000000000000000000000000000600052603260045260246000fd5b60200260200101819052508381600381518110612ec2577f4e487b7100000000000000000000000000000000000000000000000000000000600052603260045260246000fd5b6020026020010181905250612ed78282613557565b9250505098975050505050505050565b6000808273ffffffffffffffffffffffffffffffffffffffff163b119050919050565b600073ffffffffffffffffffffffffffffffffffffffff166003600083815260200190815260200160002060009054906101000a900473ffffffffffffffffffffffffffffffffffffffff1673ffffffffffffffffffffffffffffffffffffffff1614612fc55760006003600083815260200190815260200160002060006101000a81548173ffffffffffffffffffffffffffffffffffffffff021916908373ffffffffffffffffffffffffffffffffffffffff1602179055505b50565b60008160000154905060008111613014576040517f08c379a000000000000000000000000000000000000000000000000000000000815260040161300b906148ae565b60405180910390fd5b6001810382600001819055505050565b6001816000016000828254019250508190555050565b60606000869050600086905060008690506000869050600086905060008151835185518751895161306b9190614aaf565b6130759190614aaf565b61307f9190614aaf565b6130899190614aaf565b67ffffffffffffffff8111156130c8577f4e487b7100000000000000000000000000000000000000000000000000000000600052604160045260246000fd5b6040519080825280601f01601f1916602001820160405280156130fa5781602001600182028036833780820191505090505b5090506000819050600080600090505b88518110156131de5788818151811061314c577f4e487b7100000000000000000000000000000000000000000000000000000000600052603260045260246000fd5b602001015160f81c60f81b83838061316390614d45565b94508151811061319c577f4e487b7100000000000000000000000000000000000000000000000000000000600052603260045260246000fd5b60200101907effffffffffffffffffffffffffffffffffffffffffffffffffffffffffffff1916908160001a90535080806131d690614d45565b91505061310a565b600090505b87518110156132b757878181518110613225577f4e487b7100000000000000000000000000000000000000000000000000000000600052603260045260246000fd5b602001015160f81c60f81b83838061323c90614d45565b945081518110613275577f4e487b7100000000000000000000000000000000000000000000000000000000600052603260045260246000fd5b60200101907effffffffffffffffffffffffffffffffffffffffffffffffffffffffffffff1916908160001a90535080806132af90614d45565b9150506131e3565b600090505b8651811015613390578681815181106132fe577f4e487b7100000000000000000000000000000000000000000000000000000000600052603260045260246000fd5b602001015160f81c60f81b83838061331590614d45565b94508151811061334e577f4e487b7100000000000000000000000000000000000000000000000000000000600052603260045260246000fd5b60200101907effffffffffffffffffffffffffffffffffffffffffffffffffffffffffffff1916908160001a905350808061338890614d45565b9150506132bc565b600090505b8551811015613469578581815181106133d7577f4e487b7100000000000000000000000000000000000000000000000000000000600052603260045260246000fd5b602001015160f81c60f81b8383806133ee90614d45565b945081518110613427577f4e487b7100000000000000000000000000000000000000000000000000000000600052603260045260246000fd5b60200101907effffffffffffffffffffffffffffffffffffffffffffffffffffffffffffff1916908160001a905350808061346190614d45565b915050613395565b600090505b8451811015613542578481815181106134b0577f4e487b7100000000000000000000000000000000000000000000000000000000600052603260045260246000fd5b602001015160f81c60f81b8383806134c790614d45565b945081518110613500577f4e487b7100000000000000000000000000000000000000000000000000000000600052603260045260246000fd5b60200101907effffffffffffffffffffffffffffffffffffffffffffffffffffffffffffff1916908160001a905350808061353a90614d45565b91505061346e565b82995050505050505050505095945050505050565b6000815183511461356757600080fd5b600083519050600060068261357c9190614b36565b905060008167ffffffffffffffff8111156135c0577f4e487b7100000000000000000000000000000000000000000000000000000000600052604160045260246000fd5b6040519080825280602002602001820160405280156135ee5781602001602082028036833780820191505090505b50905060005b83811015613ad357868181518110613635577f4e487b7100000000000000000000000000000000000000000000000000000000600052603260045260246000fd5b6020026020010151600001518260006006846136519190614b36565b61365b9190614aaf565b81518110613692577f4e487b7100000000000000000000000000000000000000000000000000000000600052603260045260246000fd5b6020026020010181815250508681815181106136d7577f4e487b7100000000000000000000000000000000000000000000000000000000600052603260045260246000fd5b6020026020010151602001518260016006846136f39190614b36565b6136fd9190614aaf565b81518110613734577f4e487b7100000000000000000000000000000000000000000000000000000000600052603260045260246000fd5b602002602001018181525050858181518110613779577f4e487b7100000000000000000000000000000000000000000000000000000000600052603260045260246000fd5b6020026020010151600001516001600281106137be577f4e487b7100000000000000000000000000000000000000000000000000000000600052603260045260246000fd5b60200201518260026006846137d39190614b36565b6137dd9190614aaf565b81518110613814577f4e487b7100000000000000000000000000000000000000000000000000000000600052603260045260246000fd5b602002602001018181525050858181518110613859577f4e487b7100000000000000000000000000000000000000000000000000000000600052603260045260246000fd5b60200260200101516000015160006002811061389e577f4e487b7100000000000000000000000000000000000000000000000000000000600052603260045260246000fd5b60200201518260036006846138b39190614b36565b6138bd9190614aaf565b815181106138f4577f4e487b7100000000000000000000000000000000000000000000000000000000600052603260045260246000fd5b602002602001018181525050858181518110613939577f4e487b7100000000000000000000000000000000000000000000000000000000600052603260045260246000fd5b60200260200101516020015160016002811061397e577f4e487b7100000000000000000000000000000000000000000000000000000000600052603260045260246000fd5b60200201518260046006846139939190614b36565b61399d9190614aaf565b815181106139d4577f4e487b7100000000000000000000000000000000000000000000000000000000600052603260045260246000fd5b602002602001018181525050858181518110613a19577f4e487b7100000000000000000000000000000000000000000000000000000000600052603260045260246000fd5b602002602001015160200151600060028110613a5e577f4e487b7100000000000000000000000000000000000000000000000000000000600052603260045260246000fd5b6020020151826005600684613a739190614b36565b613a7d9190614aaf565b81518110613ab4577f4e487b7100000000000000000000000000000000000000000000000000000000600052603260045260246000fd5b6020026020010181815250508080613acb90614d45565b9150506135f4565b50613adc613caf565b6000602082602086026020860160086107d05a03fa90508060008114613b0157613b03565bfe5b5080613b0e57600080fd5b600082600060018110613b4a577f4e487b7100000000000000000000000000000000000000000000000000000000600052603260045260246000fd5b602002015114159550505050505092915050565b828054613b6a90614cae565b90600052602060002090601f016020900481019282613b8c5760008555613bd3565b82601f10613ba557805160ff1916838001178555613bd3565b82800160010185558215613bd3579182015b82811115613bd2578251825591602001919060010190613bb7565b5b509050613be09190613cd1565b5090565b6040518060a00160405280613bf7613c2b565b8152602001613c04613c89565b8152602001613c11613c89565b8152602001613c1e613c89565b8152602001606081525090565b604051806040016040528060008152602001600081525090565b6040518060600160405280600390602082028036833780820191505090505090565b6040518060800160405280600490602082028036833780820191505090505090565b6040518060400160405280613c9c613cee565b8152602001613ca9613cee565b81525090565b6040518060200160405280600190602082028036833780820191505090505090565b5b80821115613cea576000816000905550600101613cd2565b5090565b6040518060400160405280600290602082028036833780820191505090505090565b6000613d23613d1e84614989565b614964565b90508082856020860282011115613d3957600080fd5b60005b85811015613d695781613d4f8882613fcc565b845260208401935060208301925050600181019050613d3c565b5050509392505050565b6000613d86613d81846149af565b614964565b905082815260208101848484011115613d9e57600080fd5b613da9848285614c6c565b509392505050565b6000613dc4613dbf846149e0565b614964565b905082815260208101848484011115613ddc57600080fd5b613de7848285614c6c565b509392505050565b600081359050613dfe81614f3d565b92915050565b600082601f830112613e1557600080fd5b6002613e22848285613d10565b91505092915050565b600081359050613e3a81614f54565b92915050565b600081359050613e4f81614f6b565b92915050565b600081359050613e6481614f82565b92915050565b600081519050613e7981614f82565b92915050565b600082601f830112613e9057600080fd5b8135613ea0848260208601613d73565b91505092915050565b600082601f830112613eba57600080fd5b8135613eca848260208601613db1565b91505092915050565b600060408284031215613ee557600080fd5b613eef6040614964565b90506000613eff84828501613fcc565b6000830152506020613f1384828501613fcc565b60208301525092915050565b600060808284031215613f3157600080fd5b613f3b6040614964565b90506000613f4b84828501613e04565b6000830152506040613f5f84828501613e04565b60208301525092915050565b60006101008284031215613f7e57600080fd5b613f886060614964565b90506000613f9884828501613ed3565b6000830152506040613fac84828501613f1f565b60208301525060c0613fc084828501613ed3565b60408301525092915050565b600081359050613fdb81614f99565b92915050565b600060208284031215613ff357600080fd5b600061400184828501613def565b91505092915050565b6000806040838503121561401d57600080fd5b600061402b85828601613def565b925050602061403c85828601613def565b9150509250929050565b60008060006060848603121561405b57600080fd5b600061406986828701613def565b935050602061407a86828701613def565b925050604061408b86828701613fcc565b9150509250925092565b600080600080608085870312156140ab57600080fd5b60006140b987828801613def565b94505060206140ca87828801613def565b93505060406140db87828801613fcc565b925050606085013567ffffffffffffffff8111156140f857600080fd5b61410487828801613e7f565b91505092959194509250565b6000806040838503121561412357600080fd5b600061413185828601613def565b925050602061414285828601613e2b565b9150509250929050565b6000806040838503121561415f57600080fd5b600061416d85828601613def565b925050602061417e85828601613fcc565b9150509250929050565b6000806000610140848603121561419e57600080fd5b60006141ac86828701613def565b93505060206141bd86828701613fcc565b92505060406141ce86828701613f6b565b9150509250925092565b60008060008061018085870312156141ef57600080fd5b60006141fd87828801613def565b945050602061420e87828801613fcc565b935050604061421f87828801613f6b565b92505061014061423187828801613e04565b91505092959194509250565b60006020828403121561424f57600080fd5b600061425d84828501613e2b565b91505092915050565b60008060006060848603121561427b57600080fd5b600061428986828701613e40565b935050602061429a86828701613def565b92505060406142ab86828701613fcc565b9150509250925092565b600080604083850312156142c857600080fd5b60006142d685828601613e40565b925050602083013567ffffffffffffffff8111156142f357600080fd5b6142ff85828601613ea9565b9150509250929050565b60008060006060848603121561431e57600080fd5b600061432c86828701613e40565b935050602084013567ffffffffffffffff81111561434957600080fd5b61435586828701613ea9565b925050604084013567ffffffffffffffff81111561437257600080fd5b61437e86828701613e7f565b9150509250925092565b60006020828403121561439a57600080fd5b60006143a884828501613e55565b91505092915050565b6000602082840312156143c357600080fd5b60006143d184828501613e6a565b91505092915050565b60008061014083850312156143ee57600080fd5b60006143fc85828601613f6b565b92505061010061440e85828601613e04565b9150509250929050565b60006020828403121561442a57600080fd5b600061443884828501613fcc565b91505092915050565b600061444d8383614701565b60408301905092915050565b60006144658383614777565b60208301905092915050565b61447a81614bee565b82525050565b61448981614bee565b82525050565b600061449a82614a2b565b6144a48185614a71565b93506144af83614a11565b8060005b838110156144e05781516144c78882614441565b97506144d283614a57565b9250506001810190506144b3565b5085935050505092915050565b6144f681614a36565b6145008184614a82565b925061450b82614a21565b8060005b8381101561453c5781516145238782614459565b965061452e83614a64565b92505060018101905061450f565b505050505050565b61454d81614c00565b82525050565b61455c81614c0c565b82525050565b600061456d82614a41565b6145778185614a8d565b9350614587818560208601614c7b565b61459081614e7b565b840191505092915050565b60006145a682614a4c565b6145b08185614a9e565b93506145c0818560208601614c7b565b6145c981614e7b565b840191505092915050565b60006145e1601b83614a9e565b91506145ec82614e99565b602082019050919050565b6000614604601983614a9e565b915061460f82614ec2565b602082019050919050565b6000614627601483614a9e565b915061463282614eeb565b602082019050919050565b600061464a601483614a9e565b915061465582614f14565b602082019050919050565b6040820160008201516146766000850182614777565b5060208201516146896020850182614777565b50505050565b6080820160008201516146a560008501826144ed565b5060208201516146b860408501826144ed565b50505050565b610100820160008201516146d56000850182614660565b5060208201516146e8604085018261468f565b5060408201516146fb60c0850182614660565b50505050565b6040820160008201516147176000850182614777565b50602082015161472a6020850182614471565b50505050565b60408201600080830154905061474581614cfa565b6147526000860182614777565b506001830154905061476381614ce0565b6147706020860182614471565b5050505050565b61478081614c62565b82525050565b61478f81614c62565b82525050565b60006020820190506147aa6000830184614480565b92915050565b60006080820190506147c56000830187614480565b6147d26020830186614480565b6147df6040830185614786565b81810360608301526147f18184614562565b905095945050505050565b6000610140820190506148126000830186614480565b61481f6020830185614786565b61482c60408301846146be565b949350505050565b6000602082019050818103600083015261484e818461448f565b905092915050565b600060208201905061486b6000830184614544565b92915050565b60006020820190506148866000830184614553565b92915050565b600060208201905081810360008301526148a6818461459b565b905092915050565b600060208201905081810360008301526148c7816145d4565b9050919050565b600060208201905081810360008301526148e7816145f7565b9050919050565b600060208201905081810360008301526149078161461a565b9050919050565b600060208201905081810360008301526149278161463d565b9050919050565b60006040820190506149436000830184614730565b92915050565b600060208201905061495e6000830184614786565b92915050565b600061496e61497f565b905061497a8282614d14565b919050565b6000604051905090565b600067ffffffffffffffff8211156149a4576149a3614e4c565b5b602082029050919050565b600067ffffffffffffffff8211156149ca576149c9614e4c565b5b6149d382614e7b565b9050602081019050919050565b600067ffffffffffffffff8211156149fb576149fa614e4c565b5b614a0482614e7b565b9050602081019050919050565b6000819050602082019050919050565b6000819050919050565b600081519050919050565b600060029050919050565b600081519050919050565b600081519050919050565b6000602082019050919050565b6000602082019050919050565b600082825260208201905092915050565b600081905092915050565b600082825260208201905092915050565b600082825260208201905092915050565b6000614aba82614c62565b9150614ac583614c62565b9250827fffffffffffffffffffffffffffffffffffffffffffffffffffffffffffffffff03821115614afa57614af9614dbf565b5b828201905092915050565b6000614b1082614c62565b9150614b1b83614c62565b925082614b2b57614b2a614dee565b5b828204905092915050565b6000614b4182614c62565b9150614b4c83614c62565b9250817fffffffffffffffffffffffffffffffffffffffffffffffffffffffffffffffff0483118215151615614b8557614b84614dbf565b5b828202905092915050565b6000614b9b82614c62565b9150614ba683614c62565b925082821015614bb957614bb8614dbf565b5b828203905092915050565b600073ffffffffffffffffffffffffffffffffffffffff82169050919050565b6000819050919050565b6000614bf982614c42565b9050919050565b60008115159050919050565b6000819050919050565b60007fffffffff0000000000000000000000000000000000000000000000000000000082169050919050565b600073ffffffffffffffffffffffffffffffffffffffff82169050919050565b6000819050919050565b82818337600083830152505050565b60005b83811015614c99578082015181840152602081019050614c7e565b83811115614ca8576000848401525b50505050565b60006002820490506001821680614cc657607f821691505b60208210811415614cda57614cd9614e1d565b5b50919050565b6000614cf3614cee83614e8c565b614bc4565b9050919050565b6000614d0d614d0883614e8c565b614be4565b9050919050565b614d1d82614e7b565b810181811067ffffffffffffffff82111715614d3c57614d3b614e4c565b5b80604052505050565b6000614d5082614c62565b91507fffffffffffffffffffffffffffffffffffffffffffffffffffffffffffffffff821415614d8357614d82614dbf565b5b600182019050919050565b6000614d9982614c62565b9150614da483614c62565b925082614db457614db3614dee565b5b828206905092915050565b7f4e487b7100000000000000000000000000000000000000000000000000000000600052601160045260246000fd5b7f4e487b7100000000000000000000000000000000000000000000000000000000600052601260045260246000fd5b7f4e487b7100000000000000000000000000000000000000000000000000000000600052602260045260246000fd5b7f4e487b7100000000000000000000000000000000000000000000000000000000600052604160045260246000fd5b6000601f19601f8301169050919050565b60008160001c9050919050565b7f436f756e7465723a2064656372656d656e74206f766572666c6f770000000000600082015250565b7f696e76616c696420726563656976696e67206164647265737300000000000000600082015250565b7f746f6b656e20616c726561647920657869737473000000000000000000000000600082015250565b7f746f6b656e20646f6573206e6f74206578697374000000000000000000000000600082015250565b614f4681614bee565b8114614f5157600080fd5b50565b614f5d81614c00565b8114614f6857600080fd5b50565b614f7481614c0c565b8114614f7f57600080fd5b50565b614f8b81614c16565b8114614f9657600080fd5b50565b614fa281614c62565b8114614fad57600080fd5b5056fea26469706673582212201880bd20c32d9f87e68c0519ac8b819b5325b79a4127439b0f659757c43e42fa64736f6c6343000801003368747470733a2f2f73332d75732d776573742d322e616d617a6f6e6177732e636f6d2f756461636974792d626c6f636b636861696e2f63617073746f6e652f",
  "immutableReferences": {},
  "source": "pragma solidity >=0.8.0;\n\n// TODO define a contract call to the zokrates generated solidity contract <Verifier> or <renamedVerifier>\nimport './Verifier.sol';\nimport './ERC721Mintable.sol';\n\n// TODO define another contract named SolnSquareVerifier that inherits from your ERC721Mintable class\n\ncontract SolnSquareVerifier is casaToken, Verifier {\n    struct solutions {\n        uint index;\n        address addr;\n    }\n\n    solutions[] sols;\n\n    mapping (bytes32 => solutions) subbedSols;\n\n    event solutionAdded(solutions s);\n\n    function getSolutions() public view returns(solutions[] memory){\n        return sols;\n    }\n\n    function addSolution(bytes32 _hash, address _addr, uint256 _index ) public{\n        solutions storage sol = subbedSols[_hash];\n        sol.index = _index;\n        sol.addr = _addr;\n        sols.push(subbedSols[_hash]);\n        emit solutionAdded(subbedSols[_hash]);\n    }\n\n    function getProofHash(address to, uint256 tokenId, Proof memory proof) public pure returns (bytes32){\n        return keccak256(abi.encode(to,tokenId,proof));\n\n    }\n\n    function isSolutionUnique(bytes32 solHash) internal view returns (bool) {\n        return(subbedSols[solHash].addr == address(0));\n    }\n\n    function mintWithProof(\n        address to,\n        uint256 tokenId,\n        Proof memory proof,\n        uint[2] memory input\n    ) public {\n        bytes32 solHash = getProofHash(to, tokenId, proof);\n        require (isSolutionUnique(solHash));\n        require(verifyTx(proof, input));\n\n        addSolution(solHash, to, tokenId);\n        mint(to, tokenId);\n        \n\n    }\n\n}\n\n\n\n\n\n\n\n\n\n\n\n\n\n\n\n\n\n\n\n\n\n\n\n\n\n\n\n\n",
  "sourcePath": "/home/tcdkzrz/Blockchain-Capstone/eth-contracts/contracts/SolnSquareVerifier.sol",
  "compiler": {
    "name": "solc",
    "version": "0.8.1+commit.df193b15.Emscripten.clang"
  },
  "schemaVersion": "3.4.1",
  "updatedAt": "2022-02-14T19:33:12.291Z",
  "networkType": "ethereum",
  "devdoc": {
    "kind": "dev",
    "methods": {
      "__callback(bytes32,string)": {
        "details": "The following `__callback` functions are just placeholders ideally      meant to be defined in child contract when proofs are used.      The function bodies simply silence compiler warnings."
      },
      "isApprovedForAll(address,address)": {
        "details": "Tells whether an operator is approved by a given owner",
        "params": {
          "operator": "operator address which you want to query the approval of",
          "owner": "owner address which you want to query the approval of"
        },
        "returns": {
          "_0": "bool whether the given operator is approved by the given owner"
        }
      },
      "setApprovalForAll(address,bool)": {
        "details": "Sets or unsets the approval of a given operator An operator is allowed to transfer all tokens of the sender on their behalf",
        "params": {
          "approved": "representing the status of the approval to be set",
          "to": "operator address to set the approval"
        }
      },
      "supportsInterface(bytes4)": {
        "details": "implement supportsInterface(bytes4) using a lookup table"
      },
      "tokenByIndex(uint256)": {
        "details": "Gets the token ID at a given index of all the tokens in this contract Reverts if the index is greater or equal to the total number of tokens",
        "params": {
          "index": "uint256 representing the index to be accessed of the tokens list"
        },
        "returns": {
          "_0": "uint256 token ID at the given index of the tokens list"
        }
      },
      "tokenOfOwnerByIndex(address,uint256)": {
        "details": "Gets the token ID at a given index of the tokens list of the requested owner",
        "params": {
          "index": "uint256 representing the index to be accessed of the requested tokens list",
          "owner": "address owning the tokens list to be accessed"
        },
        "returns": {
          "_0": "uint256 token ID at the given index of the tokens list owned by the requested address"
        }
      },
      "totalSupply()": {
        "details": "Gets the total amount of tokens stored by the contract",
        "returns": {
          "_0": "uint256 representing the total amount of tokens"
        }
      }
    },
    "version": 1
  },
  "userdoc": {
    "kind": "user",
    "methods": {},
    "version": 1
  }
}